:020000041000EA
:1000000000B5324B212058609868022188439860DF
:10001000D860186158612E4B002199600221596106
:100020000121F02299502B49196001219960352056
:1000300000F044F80222904214D00621196600F024
:1000400034F8196E01211966002018661A6600F04E
:100050002CF8196E196E196E052000F02FF8012189
:100060000842F9D1002199601B49196000215960AB
:100070001A491B48016001219960EB211966A021F2
:10008000196600F012F800219960164914480160C1
:100090000121996001BC002800D000471248134993
:1000A000086003C880F30888084703B5996A0420EC
:1000B0000142FBD001200142F8D103BD02B5186610
:1000C0001866FFF7F2FF186E186E02BD00000240BE
:1000D000000000180000070000035F00212200005C
:1000E000F4000018222000A00001001008ED00E03C
:1000F00000000000000000000000000074B24E7A12
:1001000000200420F7010010C3010010C5010010F9
:10011000C1010010C1010010C1010010C101001097
:10012000C1010010C1010010C1010010C701001081
:10013000C1010010C1010010C9010010CB01001065
:10014000CD010010CD010010CD010010CD01001037
:10015000CD010010CD010010CD010010CD01001027
:10016000CD010010CD010010CD010010CD01001017
:10017000CD010010CD010010CD010010CD01001007
:10018000CD010010CD010010CD010010CD010010F7
:10019000CD010010CD010010CD010010CD010010E7
:1001A000CD010010CD010010CD010010CD010010D7
:1001B000CD010010CD010010CD010010CD010010C7
:1001C00000BE00BE00BE00BE00BE00BE00F04BF888
:1001D000103800BEF2EB887134D704105CD70410DD
:1001E0003402001090A31AE700202149086006C8D5
:1001F00081F3088810471F48006800282FD10DA4FC
:100200000ECC002902D000F012F8F9E71A491B4A77
:10021000002000E001C19142FCD1194988471949E9
:1002200088471949884700BEFDE701C901C29A42C3
:10023000FBD370475CD70410C0000020141E0020C0
:10024000B0F404100000042000000420B0F40410F6
:1002500000100420001004200000000070470B482C
:1002600003F02AFD0047EFF30580C0B2704700009D
:1002700008ED00E0000000D0181E0020703A0020B9
:10028000652000101D0500108D210010575600003C
:1002900006005250ABB36053BC2C04100600525001
:1002A000861C0302CC2C0410060052505422A29D3E
:1002B000DC2C041005005250DE65F468B0F4041024
:1002C000F8B5C0460448054B10B5834203D0044B33
:1002D000002B00D0984710BD141E0020141E0020D3
:1002E0000000000006480749091A8B10C90FC918F9
:1002F00010B5491003D0044B002B00D0984710BD17
:10030000141E0020141E00200000000010B5074C31
:100310002378002B09D1FFF7D5FF054B002B02D026
:10032000044800E000BF0123237010BDE01F00203F
:1003300000000000F8280410054B10B5002B03D076
:100340000449054800E000BFFFF7CCFF10BDC046E0
:1003500000000000E41F0020F8280410F0B5C64695
:1003600000B5056843686A465B1B9C46DE10073390
:10037000DB08DB00D31A00AF9D466346E846002B3E
:1003800018DD6B46002403CD0204120E5A700202DF
:10039000120E9A70020EDA700A04120E5A710A02D4
:1003A000120E9A7101340A0E18701971DA7108333D
:1003B000B442E8DB0A4A93699B060DD46346002BDE
:1003C0000AD046462021F01893691942FCD13378AF
:1003D000013613608642F7D1BD4604BC9046F0BD9D
:1003E00000400340F0B5D6464F464646C0B58CB0F7
:1003F00001F0ACFA02000B0014001D003A493B4822
:100400000A604B603A490E684F68A41BBD410A6000
:100410004B60384B04604560186803F09BFF002276
:10042000354B03F000FF354C354B06000F00200024
:1004300019009A4605F098FC324B334D9846334BE1
:10044000200099464246514600932B0005F0F4FCEB
:1004500020002B004A46414605F05EFD2C4C3B0037
:1004600032004146200007F0B5FC2A004946200032
:1004700008F03CF821002748A83106F00DF84A465C
:10048000414606A809F05CFA2A0006A909A809F065
:1004900057FA214A09A903A809F052FA0998002835
:1004A00001D009F03BFE0698002801D009F036FE85
:1004B00003A8FFF753FF0398002801D009F02EFE90
:1004C00001200CB01CBC90469946A246F0BD06988F
:1004D000002801D009F022FE09F0CAFE0998002880
:1004E000F5D009F01BFEF2E7D81F0020181F0020EE
:1004F000D01F00207412002000408F40381F0020C1
:1005000014380020043800202C380020B836002091
:1005100040370020201F0020E837002030B585B08C
:1005200005F0C0F9E1210F48490201F029FD0E480C
:1005300005F068FB0D4B1D6801F07CF8FA22040001
:10054000002392002800E91704F038FE0B00084948
:10055000020002910021019106492000009101F062
:100560006DF8FEE700400340381F002074120020A1
:10057000B81F0020E503001070B504684568060048
:10058000AC4208D0206800280CD00C3409F0C6FD1D
:10059000A542F7D13568002D02D0280009F0BEFD34
:1005A000300070BD0C34A542ECD1F3E7F0B5040087
:1005B000D64646464F46C0B526000721B74AB84B37
:1005C000CAB00C3608F0E8FF07213000B54AB64B38
:1005D00008F0E2FF2700183707213800B34AB44B70
:1005E00008F0DAFF24239846A04406214046AD4A8D
:1005F000AD4B08F0D1FF002323636363A3633C3357
:100600009946A144002207214846AA4B08F0C4FF9E
:100610000025182200216846A564E5642565656506
:10062000A565E56504F08EFE182025666566A5665D
:100630000AF0A4FB05001835182269462066A56655
:1006400004F086FE30220021656622A804F07AFEBE
:100650000022984B3820209221930023E3662367E1
:1006600063670AF08BFB05003835382220A9E06665
:10067000656704F06DFE30220021256730A804F084
:1006800061FE00228B4B38202E922F930023802274
:10069000A367E367A3500AF071FB05008023383598
:1006A0003822A0672EA9E55004F052FE1822E56713
:1006B0000021250006A804F045FE0023842284358D
:1006C000A35018206B60AB600AF058FB8423E05005
:1006D0006C3B9A46824453461822AB6006A904F04C
:1006E00037FE534600226B6000230C920D930E924E
:1006F0000F9300226F4B250010921193002390223C
:100700009035A35018206B60AB600AF037FB902344
:10071000E050783B9A46824453461822AB600CA9BD
:1007200004F016FE534618226B60002112A804F054
:1007300009FE00225F4B25001492159300239C2292
:100740009C35A35018206B60AB600AF017FB9C230C
:10075000E050843B9A46824453461822AB6012A96B
:1007600004F0F6FD534618226B6000211AA804F02D
:10077000E9FD00224F4B2500189219930023A8226F
:10078000A835A35020206B60AB600AF0F7FAA823CD
:10079000E050883B9A46824453462022AB6018A919
:1007A00004F0D6FD534630226B6000213EA804F0D1
:1007B000C9FD00223F4B25003C923D930023B4220B
:1007C000B435A35038206B60AB600AF0D7FA06004E
:1007D000B4233836E0503822AE603CA904F0B8FDAE
:1007E00020006E604AB01CBC90469946A246F0BDFF
:1007F0002000FFF7C1FE09F03BFDB423E0580028BC
:1008000001D009F08BFCA823E058002801D009F0A2
:1008100085FC9C23E058002801D009F07FFC902340
:10082000E058002801D009F079FC8423E058002822
:1008300001D009F073FCA06F002801D009F06EFC14
:10084000E06E002801D009F069FC206E002818D164
:1008500020005430FFF790FE20004830FFF78CFE58
:100860004846FFF789FE20003030FFF785FE4046FE
:10087000FFF782FE3800FFF77FFE3000FFF77CFEB7
:10088000B6E709F04BFCE3E7BDE7C2E7C7E7CCE713
:10089000D1E7D5E7D9E7E6E7ECE7EEE77B14AE472B
:1008A000E17A943F9A9999999999B93FFCA9F1D223
:1008B0004D62503F0000F03FF0B54E46DE464546E3
:1008C0005746E0B5E64BE74AB3B002604360050027
:1008D00018200AF053FA040029AE1822E24918340D
:1008E0002990B46004F034FD182074600AF046FAD0
:1008F00004001822DD4918347461F06004F028FD0A
:10090000182034610AF03AFA040018221834D84941
:10091000B061346204F01CFD00232420AB60EB6066
:100920002B61F4610AF02AFA0300243301932B614E
:100930000023040037009B460390A8603B6800201A
:1009400099464A467B6802939B1A5A46984622600B
:10095000DB106260A26007D080225205934200D370
:10096000BBE140460AF00AFA8246C2445346A360FD
:10097000029B2060994503D04246494604F0E8FCBA
:1009800053466360019B0C340C37A342D6D1EC6014
:1009900032AC0C3C2068002800D193E109F0BEFB8A
:1009A000B442F6D1002318206B61AB61EB610AF011
:1009B000E5F9040018341822AE496861EC6104F0CE
:1009C000C7FCAD48AD49AE4AA864E9640020AD4B10
:1009D000AD492A626B62AD4AAD4B04900591AA62A3
:1009E000EB62AC4AAC4BAD482A636B63AB4AAC4B91
:1009F000AC49AA63EB63AC4AAC4B069007912A64FE
:100A00006B641820AC61089209930AF0B7F90400EE
:100A10001822183404A92990B46004F099FC00222B
:100A200000230A920B930022974B18200C920D93EF
:100A3000802212069446AB6C74600E93EB6C634498
:100A40000F930AF09BF90400182218340AA9F060E9
:100A5000746104F07DFC0022002310921193129225
:100A600013930022884B18201492159334610AF0D6
:100A700085F904001822183410A9B061346204F01A
:100A800067FC002324202B656B65AB65F4610AF0DD
:100A900075F9030024330193AB650023040037008C
:100AA0009B46039028653B68002099464A467B6830
:100AB00002939B1A5A4698462260DB106260A2603D
:100AC00007D080225205934200D30AE140460AF043
:100AD00055F98246C2445346A360029B2060994563
:100AE00003D04246494604F033FC53466360019B01
:100AF0000C340C37A342D6D16C6532AC0C3C206868
:100B0000002800D1E2E009F009FBB442F6D12B6ADB
:100B10006C6A0022169317940023182018921993D8
:100B20001A921B930AF02AF904001822183416A905
:100B30002990B46004F00CFCA86AE96A0022002342
:100B40001E901F9118201C921D9320922193746077
:100B50000AF014F90400182218341CA97461F0601A
:100B600004F0F6FB00230022182022922393249203
:100B7000259334612B6B6C6B269327940AF0FEF857
:100B800004001822183422A9B061346204F0E0FB9A
:100B900000232420EB652B666B66F4610AF0EEF807
:100BA0000300243301936B660023040037009B4647
:100BB0000390E8653B68002099464A467B680293AB
:100BC0009B1A5A4698462260DB106260A26007D0EA
:100BD00080225205934200D381E040460AF0CEF8CD
:100BE0008246C2445346A360029B2060994503D0CD
:100BF0004246494604F0ACFB53466360019B0C340B
:100C00000C37A342D6D12C6632AC0C3C20680028AD
:100C100060D009F083FAB442F7D100231820AB6604
:100C2000EB662B670AF0AAF8040018341822204952
:100C3000A8662C6704F08CFB00231820EC666B6719
:100C4000AB67EB670AF09AF80400183418221949C8
:100C50006867EC6704F07CFB2800AC6733B02BE0DE
:100C600096484740E3C798BB302904104829041030
:100C7000602904107829041056F146E6913F483F58
:100C80000612143FC6DCEF3F0000F03FEA95B20CBD
:100C900071ACEF3F03098A1F63EEEE3F1405FA447F
:100CA0009E248D3F9E248DBF8D976E1283C0AA3FD8
:100CB00090290410A82904103CBC90469946A246ED
:100CC000AB46F0BDB44200D063E66BE6B44200D060
:100CD00014E71CE7B44298D19FE71CF06FFA1CF0B0
:100CE0006DFA1CF06BFA28005030FFF745FC68697C
:100CF00000281BD128000830FFF73EFC09F0B8FAA5
:100D0000E86D002801D009F009FA32AC0C3C2068EB
:100D1000002801D009F002FAB442F7D1E3E709F064
:100D20007DFB039BA34204D109F0F0FF09F0F6F923
:100D3000E0E71868002801D009F0F0F9039B0C33B4
:100D40000393EEE709F0A4FBA868002801D009F09E
:100D5000E5F932AC0C3C2068002801D009F0DEF93E
:100D6000B442CBD0F6E7EFE709F058FB039B9C4277
:100D700029D109F0CBFF286D002801D009F0CEF968
:100D800032AC0C3C2068002801D009F0C7F9B4420D
:100D9000F7D1ACE7ABE7686F002801D009F0BEF9E6
:100DA000A86E002801D009F0B9F928005C30FFF7DF
:100DB000E3FB98E7F4E79AE709F030FB039B9C42DA
:100DC0000AD109F0A3FF1868002801D009F0A6F99C
:100DD000039B0C330393C9E71868002801D009F07E
:100DE0009DF9039B0C330393E8E709F051FBC2E73D
:100DF00009F04EFB84E7C046802370B55B05040014
:100E0000994215D2002303604360836000290DD00E
:100E1000CD00280009F0B2FF46192A000021206009
:100E2000A66004F08FFA2000666070BD0026FAE725
:100E300001481CF0FBF9C046F828041000B5104822
:100E400083B00AF07FFA0F48FFF736FD0E48FFF730
:100E5000ADFB01AA03210D48FFF7CEFF01AA032134
:100E60000B48FFF7C9FF01AA03210A48FFF7C4FF97
:100E700000F06CFD084B1860596003B000BDC0461F
:100E8000AC360020381F00204037002004380020F6
:100E9000B83600202C380020D01F0020094A8300DB
:100EA00094464022634410B51C68C0006240C024D0
:100EB00014408022520113431C60034B9C46604443
:100EC000416010BD04C00140004001400A4B800059
:100ED0009C4604236044002901D00C230821002AE9
:100EE00000D10B00026853400C221A4080235B01A2
:100EF000184302607047C04604C00140F8B5EFF3E4
:100F0000108772B60E4E3368002BFCD0BFF35F8F94
:100F1000CB08C4180725A446C45C01230D40AB4090
:100F200018002040234208D1624623431370BFF3C8
:100F30005F8F306087F31088F8BD100001F042F930
:100F40002C0100D0024B18688007C00F7047C046C4
:100F500000C006400021044B044ABFF35F8F02C368
:100F60009342FAD17047C046000100D0800100D002
:100F7000044A1078431CDBB2172B00D910231370DE
:100F80007047C0467812002001238340002904D016
:100F9000034A1360034A13607047034A1360FBE778
:100FA00080E200E000E100E080E100E0024B103070
:100FB0009B688000C058704700ED00E070B50D00E0
:100FC000EFF3108672B60F4A1368002BFCD0BFF304
:100FD0005F8F0D4B10309B6884001B590B4A934266
:100FE00003D09D4201D001F005F9074B9B681D51CC
:100FF000BFF35F8FBFF35F8F0022024B1A6086F34F
:10100000108870BD240100D000ED00E0CD0100107B
:10101000F0B5DE4657464E464546E0B50C0083B077
:10102000EFF3108A72B65A4A1368002BFCD0BFF354
:101030005F8F1022914681444A46564B96009B682A
:101040009D59554B98469D4205D0A54216D0534F09
:10105000EB1B2F2B14D94F4B9B689D51BFF35F8F18
:10106000BFF35F8F00224A4B1A608AF3108803B0E7
:101070003CBC90469946A246AB46F0BD1D00EAE74F
:10108000012383409B465A46454B1B681A400092F9
:101090005A46444B1A60BFF35F8FFFF7E4F80190A4
:1010A000002803D0814501D001F0A4F801232A00D3
:1010B0009A4393689C4208D160E04B005B189B0008
:1010C000FB189968A14211D01A0006215156002937
:1010D000F3DA009B002B05D05A46334B1A60304B95
:1010E0001A60B8E75A462F4B1A60B4E706215956E2
:1010F000002922DB4A00501880003C188046A06876
:101100009860E079D871062020569871A0797F28E0
:1011100024D8A488F81A6405241544440019E0244E
:101120000005400D24022043988052181F4B920066
:10113000BF181A781970BA71CBE70199002910D13C
:10114000FF3191711A49918018490A789A71194AA8
:10115000DB1B5B415A43120D0A70BAE7BD20000247
:10116000E2E7154A1549D21A083A5002400D0143E8
:101170009980134952080A43DA80AAE7062151569A
:1011800013000029B6DA019A002AEAD14546DBE7C6
:10119000240100D000ED00E0CD0100107C12002001
:1011A00000E100E080E100E080E200E0653800203E
:1011B00000BDFFFFAAAA0000B612002000F0FFFF4A
:1011C00000F8FFFFF8B5012504000543FFF74BF8D1
:1011D0000300EFF3108672B621490A68002AFCD09A
:1011E000BFF35F8F1F4A20001F49801A40414143CF
:1011F000090D1E489B00876849B2FF58AF421CD0BA
:101200000623D3568B421CD01223D3568B4222D0B6
:101210001E23D3568B4220D02A23D35603208B4241
:1012200010D0134B1A781970A271BFF35F8F002290
:101230000B4B1A6086F31088F8BD82680D48D050B9
:10124000EFE7002043001B189B00D218FF23937187
:10125000094B9380E5E70120F4E70220F2E7C0465E
:10126000240100D07C120020AAAA000000ED00E0BA
:1012700065380020CD01001000BDFFFF054B064A78
:101280001360064A136053609360D3601361536127
:10129000936170478080808000E400E004E400E017
:1012A000024B9C4661448900016070474000003455
:1012B00083680B4810B584466144624409011201F9
:1012C0009A18591854684B6801209C4201D802D0E2
:1012D0000020C0B210BD12680B689A42F9D8F7E737
:1012E000FFFFFF0F10B508000B690C00984700289E
:1012F00002D02068616810BDE06000210020FAE79C
:10130000F8B5574645464E46DE46E0B599460CAB25
:1013100019780DAB1B78050090469A46076800299E
:1013200012D1BE7B002E45D074003B68A419033C4B
:101330001B195A783100BA73002A00D1FA730022BF
:101340009A705A701A7003E00E004C006418033C47
:101350002C4B00229C46AB6861449C4643460901E5
:1013600061440B604B464B600A9B8B600B9BCB60D0
:101370003B681B199A705A701A707B7B9B46002B36
:101380002CD032005946B8687B6898473A680028E4
:1013900017D05B4658465B005B441419033BA070B2
:1013A000D118D35C002B00D063705B460E707B734A
:1013B000B34514D030003CBC90469946A246AB469B
:1013C000F8BD5B465B005B44033BD3189E7011196C
:1013D000125D002A00D05A705B460B707E73424645
:1013E0004B46287D00F02CFB041E06D05346002BF4
:1013F00003D13100286800F069FD0E9B002BD9D085
:101400001C70D7E7FFFFFF0FF0B5DE464E4657468C
:1014100045460023E0B58DB00A936B4B8200D3584C
:101420000B90994600239B464B46079300F08EFA9B
:10143000079C06000F006268EFF3108572B6136810
:10144000002BFCD022000794BFF35F8F2468637BDE
:101450009946002B67D092685C4B90464B441B0129
:10146000984443461A685B6810001900801BB94114
:1014700000295FDD0B9800F0E3FA00230026984670
:1014800000279A46079C6368BFF35F8F5A461A602D
:1014900085F310885346002B08D10028C6D10DB023
:1014A0003CBC90469946A246AB46F0BD0A9B4146DD
:1014B00018024B461843D047089009916268EFF331
:1014C000108572B61368002BFCD00794BFF35F8FB2
:1014D0000899099A002A48DB114303D0079B1B692E
:1014E000002B5DD1079B1B68DA7B002A07D05100D7
:1014F0008A1819688C4649466244033A51704A4634
:10150000DA734B46079A013BD168CA5C0132CA5470
:101510005B46079A13615368BFF35F8F5A461A60A0
:1015200085F3108882E700230026984600279A4614
:101530000020A7E7002901D100289BD1002120002D
:1015400000F026FC43461E685F689B68079A9A462F
:101550004346DB689846D3684B44013B1B780A93AB
:101560001B020343136100208CE72369002BB9D0D1
:1015700033003C005B1A94411A002300A74219D89B
:101580009F421BD059460491012103914946029183
:1015900041460191514607980091FFF7B1FEB7E728
:1015A00000F0D4F9089A099B06000F0092197B41BC
:1015B0009942E5D901225242D317E3E79642E1D995
:1015C00001225242D317DDE738380020FFFFFF0F1A
:1015D00010B5124C6368002B04D00A211048FFF7A5
:1015E0005FFE10BD23000F4A1021206800F0EEFAC4
:1015F000032000F09FF9032000F094FA03200A4929
:1016000000F0D8F9FFF7B4FC084B9C460323604474
:101610002375074B80006060DC60DEE7C4120020A9
:101620004C380020B11200100914001040000034A2
:101630003838002000487047C4120020F0B54E46EC
:101640004546DE465746E0B583B00E99060088460B
:101650001100194300D1F3E0D817070057403C00B0
:1016600007005F4001003D00241A8D4141460C985F
:101670000A600D9A4B604A618E60086100F066F95D
:1016800002000B00A4185D41200029000090019188
:10169000AB4200D9E3E000D1DDE00023C3461F00E8
:1016A000B04643465B68EFF3108972B61A68002AA9
:1016B000FCD0BFF35F8F43461D68AC7B002C5FD02E
:1016C00066002B683619033E9B195A78AA73002AC4
:1016D00000D1EA73002042469870587018709268E2
:1016E000644B94460099019AE3181B016344196006
:1016F0005A60614A9A605A46DA602B689B19987062
:10170000587018706B7B9A46002B00D188E022003D
:101710001900A8686B6898472A68002800D173E010
:10172000534650465B0053449619033BB070D118A2
:10173000D35C002B00D08CE053460C706B73544587
:1017400000D16EE043464246DB6852681B19013BFC
:101750001B78BFF35F8F0021116089F31088002F81
:101760001AD11B021C430123D8469A4643465046D1
:10177000DC6003B03CBC90469946A246AB46F0BD47
:10178000D8465B68BFF35F8F1C6089F31088002325
:1017900001249A466442E9E758460369984781461E
:1017A000002803D1BA46D8460024DFE75B461C6810
:1017B0005D6823002B4358D0002D0FDA009A019B5F
:1017C00010001900001BA94104000D008B4210D825
:1017D000AB4212D04F460094019562E700F0B6F894
:1017E00006000F00A4197D41A94202D8F2D1A042FF
:1017F000F0D901246442E517ECE7009BA342E9D944
:1018000001246442E517E5E753465B005344033B7C
:10181000D3189C709119925D002A16D153460B7013
:101820006C734346187D009A019B00F009F9071E6E
:1018300000D187E743462100186800F047FB81E7A5
:10184000012400250122002310E75A7053460B7033
:10185000E6E7737070E700998A4200D81DE701231C
:101860005B42DC170093019417E7D846CA46002470
:101870007CE7C046FFFFFF0FE5120010F0B5D6462B
:101880004F464646C0B5EFF305833F22134018008C
:101890001038EFF3108C72B6204D2A68002AFCD065
:1018A000BFF35F8F0122110081401D4C88466163A8
:1018B0001C4917000E788A463100C1400F400A4289
:1018C00015D019498200646A51588C4219D3174BBC
:1018D000D25843469E4353461E70BFF35F8F00238A
:1018E0002B608CF31088002A06D0904704E0BFF3E9
:1018F0005F8F2F608CF310881CBC90469946A246DF
:10190000F0BD0B4A9B00904643441A681A60BFF32F
:101910005F8F00232B608CF31088EDE7280100D047
:10192000004005406638002050380020C4360020B2
:10193000D03F054010B50100024A0348FFF7DEFA28
:1019400010BDC046C829041064380020034B596AF2
:101950000A00986A596A8A42FAD1704700400540E5
:1019600070B504000D00124A536A1900966A536A52
:101970008B42FAD13000190024184D41AB4211D8E6
:101980000ED02B000A494A6A9A42FCD307D1084A72
:1019900002E0516A994202D1916AA142F9D370BD25
:1019A000A642EED9012301246442E5175B42E9E730
:1019B0000040054070B504000D00EFF3108672B6CC
:1019C0001A4A1368002BFCD0BFF35F8F002D1BD089
:1019D0002000FFF7EBFA164981420AD02000FFF7FA
:1019E000EDFA01212000FFF7CFFA0123A340114AAD
:1019F0001360114BA400E550BFF35F8F00220B4B27
:101A00001A6086F3108870BD0B4BA200D5500122DE
:101A1000A2400A4920000B7893430B700449FFF75A
:101A2000F7FA00212000FFF7AFFAE5E7280100D020
:101A30007D18001038600540C4360020663800204C
:101A4000F0B54F46D6464646C0B50700304C616AF1
:101A50000D00A66A616AA942FAD18B4208D805D066
:101A600001201CBC90469946A246F0BDB242F7D96F
:101A7000EFF3108972B6274801680029FCD0BFF344
:101A80005F8F01252449BD408C460978204C0E000B
:101A90002E438846F1B28A46614650460870391D89
:101AA0001E48890065630A51B9000B50216A002065
:101AB000294219D0616A0800A66A616A8142FAD196
:101AC0008B4219D801D1B24216D8C2451DD0104B55
:101AD0001F201D625D6301230740BB40104A1E3872
:101AE0001360634642461A70BFF35F8F0022094BB2
:101AF0001A6089F31088B4E70020BFF35F8F0022DB
:101B0000044B1A6089F31088ABE70120ECE7C0466C
:101B100000400540280100D06638002050380020E1
:101B200080E200E010B5EFF3108472B60A490B684A
:101B3000002BFCD0BFF35F8F01238340074A084886
:101B4000136202789A430270BFF35F8F00230B6029
:101B500084F3108810BDC046280100D00040054025
:101B60006638002070B505000E001400002924D04E
:101B7000002A24D080686B689847296800280ED016
:101B800063001B197200033B9219CB18033A9E7035
:101B900088188A5C002A14D1047030000EE07300AB
:101BA0009B196200033B1219CB18033A9C708818EA
:101BB0008A5C002A00D05A700670200070BD0800B0
:101BC000FCE75A7004703000F8E7C04630B5836017
:101BD0000023CCB243730133047342608373C47334
:101BE0000D000068012C06D9421C0133DBB21370D2
:101BF00003329C42F9D1FF2129404B0059180023A0
:101C000040180338437030BDF8B5CE46474606004D
:101C10000C0080B5002907D04D0003686D18033D06
:101C20005A195778002F04D120000CBC90469946D1
:101C3000F8BD7900C9190339884643445978894663
:101C400000215970517073683A00210080689847EC
:101C50003368002814D042469A18947059195B5D75
:101C6000002B00D053700F70270049463000FFF75B
:101C7000CBFF390002003000FFF774FF0400D3E708
:101C8000424641465D19AF709A185B5C002B00D04C
:101C90006B701470E9E7C046F0B557464546DE461E
:101CA0004E46E0B50D006B0001685B19DF1E0400B5
:101CB000C85D83B00192CA1900284CD043001B189C
:101CC000033BCB185E78B446002E16D1019E002E41
:101CD0003ED0E67B002E04D073009B19CB18033B4B
:101CE0005D70E57300282FD10023537003B03CBC16
:101CF00090469946A246AB46F0BD72006244033A54
:101D000089184A78904600224A7091465A7001001C
:101D100032002000FFF726FF43468246002B07D003
:101D20005B0021684344033BCB185A78002A16D144
:101D3000424651462000FFF715FF2168019BCA1952
:101D4000002BC6D10028CFD043001B18033BCB1873
:101D500000219970C8E7019B002BBAD1C4E750005D
:101D600080180338091848788346484648705870E8
:101D700041462000FFF7F6FE594680462000FFF757
:101D800043FF414602002000FFF7ECFE8046CFE70C
:101D9000F0B54E464546DE465746E0B5467B040064
:101DA00075000068AD19033D83B00191415D421992
:101DB00000294ED04B005B18033BC3185F78BC462C
:101DC000002F18D1019D002D40D0E57B002D04D0BF
:101DD0006B005B19C318033B5E70E673002931D1B9
:101DE000002330005370617303B03CBC90469946A9
:101DF000A246AB46F0BD7A006244033A80184278AE
:101E000093460022427091465A7020003A00FFF734
:101E1000A9FE5B468046002B07D05B0021685B442F
:101E2000033BCB185A78002A17D15A464146200066
:101E3000FFF798FE019B010020684219002BC4D1D6
:101E40000029CDD04B005B18033BC31800209870CD
:101E5000C6E7019B002BB8D1C2E7500080180338B9
:101E600009184878824648464870587059462000FC
:101E7000FFF778FE53468346002B07D05B002168AE
:101E80005344033BCB185A78002A06D15946524690
:101E90002000FFF767FE8346C7E75000801803382D
:101EA000091848464F784870587051462000FFF78F
:101EB00059FE390081462000FFF7A6FE4946020080
:101EC0002000FFF74FFE8246E0E7C04670B50400F1
:101ED00000292CD0437B8B422ED005684800401847
:101EE000033828188278002A21D053009B18033B1E
:101EF000EA5CEE188A4202D11BE0002A08D05300A7
:101F00009B18033BEB185A788A42F6D142785A70F4
:101F100000230122837043702000FFF7BDFE617B28
:101F200002002000FFF71EFE6073012000E0002089
:101F300070BD43783370EBE701221900FFF7ACFE68
:101F400060730120F4E7C04610B50400FFF710F8F5
:101F500001002000FFF7A4F9FF232371BFF35F8F77
:101F600010BDC04610B50400FFF702F801002000C4
:101F7000FFF796F9FF23A380BFF35F8F10BDC04624
:101F8000F8B5040006200D0000F098FA002845D0AE
:101F90002B4B2C49E3185A4253418022D2039446DA
:101FA0005B421340284A63441360284A13601800B8
:101FB0008A689043FBD1224B8021E3185A42534157
:101FC000234A5B0049000620995200F077FA290065
:101FD000C00001F0C7FEC30921D14027012226001D
:101FE00080256262A36200232C36AD0135432B604D
:101FF000062000F063FA3900800001F0B3FE602390
:10200000E26A53406E221A4080235B0133431A6018
:10201000104B236310232B600D3BA364F8BD0E4AC5
:10202000934203D900230D4F0D4AD8E77F22104079
:10203000013040089F011A003F180300CFE7C04657
:102040000080FCBF00C0004000E0004000F0004005
:102050006838002001030000FEFF0000C0FF3F00C1
:10206000FFFF00002C4B2D4A70B51A602C4A2D4BF7
:102070002D491A6010008B689843FBD12B4C2C4BD8
:102080009C4209D2013B1D1BAD080135AD002D1945
:1020900008CC9847AC42FBD100F0B2F8254A214B5E
:1020A0001A60214A9368DB018033FBD14022224B26
:1020B000224C234D9A675A671A67DA66AC4208D2F7
:1020C00023682000002B21D00834FFF74BFFAC42DF
:1020D000F6D31C4C1C4DA168C022280003F038F92F
:1020E000A560FEF737FFFFF7C9F8FFF771FA174C45
:1020F000174B9C4209D2013B1D1BAD080135AD00B9
:102100002D1908CC9847A542FBD170BD0834FFF7C4
:102110001BFFAC42D4D3DCE700E00040BFCDFBFEA8
:10212000FE7F3C0000F0004000C00040E01D0020A9
:10213000F01D0020FFFFFF0100F00140D81D00202E
:10214000E01D002000ED00E000000020F01D002058
:10215000141E002000BEFDE7094A03001068002895
:1021600005D00849C3188B4207D81360704706484A
:102170000449C31810608B42F7D901204042F5E7AB
:102180001038002000000420703A002000BEFDE757
:1021900010B50C0082B01900002A09D0064B01923C
:1021A000009302002300054801F046FD00BEFDE754
:1021B000034B1A00F3E7C046EC290410FC29041075
:1021C0005C5F04100FB400B5084883B003F01CFA3C
:1021D000049B002B07D005A91800019101F04CFDCC
:1021E000034803F011FA00BEFDE7C0462C2A041094
:1021F000242E041010B50148FFF7E4FF3C2A041018
:1022000030B50C2083B000F0B3F9FEF79BFE002838
:102210000ED0944B944A1A605A609A60DA601A6140
:102220005A619A61DA611A62904A5A6203B030BD0B
:102230008F4CA06700F0A4F901228E4B1A60636CEA
:10224000012BFCD103228C4B1A60894A936B012B22
:10225000FCD101330121894A89480093043300F0FD
:1022600033F90523874A00930121874800F02CF9B0
:10227000864B5A68FF2A02D8802252005A60802278
:10228000784C7D4B21691201804D1A60002905D0E0
:10229000606901F067FD01300138FDD1E0217B4B21
:1022A00002201A681140802252012A4311601968E5
:1022B000484003210140116004219A681142FCD07A
:1022C0008022802192012A4309011160802252005C
:1022D0005A606F4B23616F4B5968FF2900D85A60D1
:1022E00003226C48634B01211A6002009368194273
:1022F000FCD0E02513681D4080235B0103431D6073
:1023000012684A400321114019600221614A936812
:102310001942FCD0802380219B01034309011960ED
:1023200080215D4B4900516063615C4B5A68FF2A14
:1023300000D8596080225A4BE1691201574D1A604A
:10234000002905D0606901F00DFD01300138FDD193
:10235000E02252490B681A4080235B012B431A602C
:10236000802380229B012B4312011A6080223E4B66
:1023700052004A60E3614B4B5968FF2900D85A600C
:102380008022494B216A1201464D1A60002905D06E
:10239000606901F0E7FC01300138FDD1E0224149DC
:1023A0000B681A4080235B012B431A608023802234
:1023B0009B012B4312011A60802380225B004B603B
:1023C000294BD2022362394B5968914200D25A609C
:1023D0008022374B616A1201344D1A60002905D002
:1023E000606901F0BFFC01300138FDD1E0222F49C6
:1023F0000B681A4080235B012B431A6080238022E4
:102400009B012B4312011A608023DB024B60174BA8
:102410006362284B5A68FF2A02D8802252005A6011
:102420008022254BA1691201224D1A60002905D096
:10243000606901F097FC01300138FDD1E0221D49AF
:102440000B681A4080235B012B431A608023802293
:102450009B012B4312011A6080235B004B600E4BE3
:10246000A361E3E6D4360020006CDC021BB7000059
:10247000008000403CB0004030B00040002F685960
:1024800000800240008C864700C00240308000403F
:10249000001BB7003C800040405973075480004047
:1024A00054B000406080004060B000406C8000404C
:1024B0006CB000404880004048B00040014B8000B4
:1024C000C0587047D4360020F8B504000C2017001F
:1024D0001D000E0001F046FC4101091A8B01591A3A
:1024E000C90009188901380001F03CFC069A2B0448
:1024F000120313432268002A21DB194AA218514211
:102500004A41802149018C4652420A4015496244A1
:102510000A6015490A60154917008D68AF43FBD161
:10252000C021221D8901114321222660A0600A607A
:102530002268002AFCDAE36008230B60F8BD3F2222
:1025400021680A40B242D8D1A2681205120D824217
:10255000D3D1EE21E268C9020A409A42CDD1EDE71B
:102560000040FDBF00E0004000F0004000C000401F
:102570008023024A9B000343D362704700800540DA
:10258000AA23064A1B0113602F230549D360054B7C
:1025900019605368002BFCDA7047C04600400240C7
:1025A00000B0FA00006002409A4200D2885470479E
:1025B0007047C046F8B557464E46DE464546E0B53C
:1025C0001F000A9B05009B460D9B0E0091469246FC
:1025D0009B0718D10B9B0C9A934214D213000B9AB1
:1025E000B8469B1A4B444C460F0006001D002200C3
:1025F0004346013439002020B047AC42F7D1AA4607
:1026000035003E0047460B9B002B38D09A441C00F7
:10261000D04653461A1B5B46013C185D31003B0017
:10262000A847002CF5D10D9B9B0721D543464A4670
:102630009C1A0C9BA3421BD93A009A464F469146DE
:10264000E2194B46310020200134A8475445F7D306
:1026500043460C99DB1B0133B9460022994203D350
:1026600043464A1E4A44D21A434690460133984490
:1026700040463CBC90469946A246AB46F8BDD04683
:10268000D1E7C046F0B54F464646D646C0B584B001
:1026900098460EAB1B78129F994694460D9C109B52
:1026A000119EBA0725D4002E69D19C4200D3C2E006
:1026B00001223A4092461F2C00D9BBE00C9A551ECD
:1026C000302201E0202C03D001342A55A342F9D84E
:1026D0005246002A0DD0B4420BD21F2C62D80C9A5D
:1026E000551E302201E0202C5CD001342A55B44222
:1026F000F9D1FA0635D57A055DD4002C57D10F9B58
:10270000102B00D17CE00F9B022B00D18DE03023F9
:102710000C9A012413704B46002B27D02D230C9AC2
:10272000135501340C9B624600930397434602966F
:102730000194FFF73FFF04B01CBC90469946A246A7
:10274000F0BDBB0663D4202CECD00C9B1A190134CD
:1027500078231370202CE5D030220C9B1B191A70A3
:102760000134202CDED04B46002BD7D17B0735D44B
:102770003B07D7D520230C9A13550134D2E7012209
:1027800015003D40AA463A4220D04A46002A2AD1A6
:102790000C323A4227D19C429DD21F2C00D88DE7A3
:1027A000202E19D92024FA06BCD57A0503D4A342D9
:1027B0001BD0A64219D00F9B102BC2D0022BC9D11F
:1027C000202CAFD00C9B1B19013440E09C4200D35D
:1027D0008FE71F2C00D871E720248AE72B230C9A5F
:1027E000135501349EE7013ED5E7631E012C00D14D
:1027F00085E70F9A102A20D0022A25D01C00ABE7CB
:10280000BB060DD478230C9A01241370A4E7202C66
:1028100000D187E758220C9B1B191A70013499E7E5
:1028200058230C9A0124137096E70C9A6033012404
:10283000137091E7202400265BE7023CBA06E9D436
:102840000C9A12191C0083E70C9A92465344622298
:102850001A707FE710B5002800D110BD02F082FE8B
:10286000FBE7C0460B0010B5002802D049681B6882
:10287000984710BDF0B5DE46574645464E46E0B592
:102880009BB09B46249B0A909846259B0B910C92EB
:102890004046424619009A4601F049FD002800D002
:1028A000E8E00122404651467F4B524201F03AFD9A
:1028B000002800D0DEE00122404651467B4B5242C8
:1028C00001F01AFD002800D0D4E000220023404689
:1028D000514601F011FD002800D0CAE15346C1461F
:1028E00009938023289ADB001A400E92289A1A42F4
:1028F00001D1062326934C46099B234300D0D9E0FF
:10290000289B002600271B0500D4AEE100230D9371
:10291000269B19000D9B994200DCB0E1C81A431EAA
:1029200026938023289ADB001A430023002528924F
:102930000D93279B0024AB4200D95C1B0223289AED
:102940001A400E92289A134203D06B426B415B42AD
:102950001C400D9B002B07D04846099932003B00D4
:1029600001F061FC81460991002200234046514656
:1029700001F0C2FC002805D0802000068446099999
:1029800061440991289A4A4B0A9E13404A4604938F
:10299000269B0B990293099B0394009201933000AC
:1029A0005B460C9A884600F0A1F90400002D72D015
:1029B000289B220098061F23C017984341465B4678
:1029C0006530B0470D9B671CDA179C18DB0F9846E3
:1029D0006B1E99460025544001E0202D13D00AAA11
:1029E00094461F23200063440A2101355E1901F03B
:1029F000B9F93031317020000A2101F0B3F9260015
:102A00000400092EE9D8052306934B4605930023BD
:102A100004930A33039343463A000A9E0B9F0293A2
:102A200012AB009339005B4630000195FFF72AFE98
:102A30000E9B0400002B2ED00C9B279AC51AAA428D
:102A400029D93C00814698461700434621005A196F
:102A500020205B460135B047AF42F6D84C460C9972
:102A60002798631A01330022984200D30AE1013407
:102A7000141910E0289B42460493279B0B9903935B
:102A8000269B0A9802935346009201935B460C9A48
:102A900000F02CF9040020001BB03CBC9046994685
:102AA000A246AB46F0BDC046FFFFEF7FFFFFEFFF42
:102AB000FFF7FFFF764B099D9C466800400D604480
:102AC00001F048FC734A744B01F0CBFB734A744B22
:102AD00001F0A0FB2B03734A1B0B1A4306000F00E7
:102AE000714B110048460022099501F08AFB6F4A9C
:102AF0006F4B01F0B6FB02000B003000390001F013
:102B000089FB01F03FFC0D9001F024FC694A6A4BFF
:102B100004000D0001F0A5FB0022684B01F07AFBD8
:102B200001F030FC664A0600664B2000290001F0E7
:102B300098FB040030000D000F9601F00BFC624A78
:102B4000624B01F08EFB02000B002000290001F017
:102B500058FB02000B0006000F0001F082FB320060
:102B600004000D003B003000390001F053FB00224F
:102B700010901191564B2000290001F054FB0022C7
:102B8000544B01F047FB02000B002000290001F02C
:102B90004AFB0022504B01F03DFB02000B002000DD
:102BA000290001F040FB0D00802132003B000400B1
:102BB000C905002001F025FB02000B0020002900C0
:102BC00001F028FB02000B001098119901F02BFB7B
:102BD0000022344B01F01EFB404A0F9B9446634495
:102BE00000221B0501F03DFB06000F0002000B0058
:102BF0004846099901F080FB00280AD00D9B30005F
:102C0000013B39000D930022324B01F00CFB060012
:102C10000F00C6250D99330063318D42AD412899CF
:102C20006D420435090500D483E63B4300D16FE6CD
:102C3000099C484621002A4A2A4B01F06BFB0028D8
:102C400008D0002248462100274B01F055FB002800
:102C500000D05DE6269B002B00D16AE60E9B5A1E33
:102C60009341269AD31A269363E6002304250D93F5
:102C70005FE680231B065344C146099331E60023D7
:102C800026934EE60A008446013A6244121BEEE6A1
:102C900001FCFFFFFB799F501344D33FB3C8608B07
:102CA000288AC63F0000F03F0000F83F61436F6391
:102CB000A787D23F71A379094F930A400000E03FF4
:102CC0001655B5BBB16B0240EF39FAFE422EE63F16
:102CD00000002C400000244000001840FF030000CA
:102CE0002D431CEBE2361A3F80842E41F0B54E4650
:102CF000DE4657464546E0B597B09946209E219F4F
:102D0000229B8346984607910C923B00320030008C
:102D1000390001F00CFB002800D0C1E10122300095
:102D20003900CA4B524201F0E7FA002800D0E0E037
:102D3000012230003900C64B524201F0F3FA00285C
:102D400000D0B6E0002230003900C24B01F0EAFAB0
:102D5000002800D098E0002230003900BE4B01F07E
:102D6000CBFA002800D08FE0002200233000390089
:102D700001F0C2FA002800D0B0E000230D93249B9C
:102D80005B0501D40623984608AB9C461722002415
:102D900030234146624404E0013413550139202CAC
:102DA00001D00929F8D888463000390001F0EAFA44
:102DB0004346DA00A94B05009B181A685B68089225
:102DC000099301F0C7FA02000B003000390001F04E
:102DD00018FA089A099B01F044FA0A900B9101F045
:102DE000F5FA824601F0B2FA02000B000A980B993C
:102DF00001F007FA00229A4B0A900B9101F092FA27
:102E0000002800D1C0E001239C46E244504601F076
:102E10009DFA02000B000898099901F073FA002846
:102E200002D000239A4601354346002B69D008ABF7
:102E300017269C4608956644554614E001235B42DC
:102E400043440A2128009A4600F08CFF01343031B7
:102E50003719397028000A2100F084FF092D00D8A5
:102E6000D5E0D0460500202CE8D10323249A134056
:102E7000012B00D100E10EAB9846249B01940393F3
:102E8000239B029343461EE0249B58460493239BB6
:102E900000960197039343460C9A029307994B4679
:102EA000FFF7E8FC17B03CBC90469946A246AB46FB
:102EB000F0BD249B5B070ED403226A4B2499019238
:102EC000039123990291009358464B460C9A079917
:102ED000FFF770FBE6E70422634BEFE73B003200AD
:102EE0000020002101F08DF9012306000F000D9351
:102EF00045E7249B0393239B0293042301935B4B9D
:102F0000E1E7280001F026FA02000B00300039004A
:102F100001F077F9524B002206000F0001F0ECF9A6
:102F20000EAB984600280AD10022300039004C4BE5
:102F300001F0F8F9002802D1EB0700D50135202C6B
:102F400032D008AA94461723280063440A2101348A
:102F50001E1900F0DFFE3031280031700A2100F028
:102F6000D9FE051EEBD10323249A1340012B00D177
:102F700091E01F2C00D980E70D9B002B3BD02D2327
:102F800042461355013478E700220A980B99344BD6
:102F900001F0B2F9002800D046E75346002B67D174
:102FA00001239C46E2443FE70323249A1340012B6C
:102FB00000D062E7239B002B00D15EE70D9B002B26
:102FC00003D1249A0C33134202D0239B013B239359
:102FD000239B9C42CDD208AB9C46172230236244EF
:102FE0001F2C06D82399013413558C42C1D0202CB4
:102FF000F8D1202441E7249B5B0721D4249B1B07A5
:1030000000D43AE7202342461355013435E75746AA
:10301000089D202C37D0220030214046002F08D0B8
:103020000132B154202A43D0D3431B191B18002B63
:10303000F6D10EAB98462E234146541C8B547EE7A6
:103040002B2342461355013417E7C046FFFFEFFF1D
:10305000FFFFEF7F65CDCD4165CDCDC1402C041084
:103060000000E03F482A04104C2A0410582A04109B
:10307000DB0700D4D8E693E7239B002B00D1FAE6C8
:103080000EAB98469AE70323249A1340012B00D0F5
:10309000F1E60EAB9846239B002B00D169E78DE744
:1030A000249B0393239B029303230193064B0AE77C
:1030B0000323249A20241340012B00D0DBE6239B1A
:1030C0002024002BDCD1D6E6542A0410F0B5DE46CD
:1030D0004E4657464546E0B59FB01C00289B934698
:1030E0000993CF4ACF4B894608901A60002900D136
:1030F00016E2002320789A46002800D118E2260024
:103100001D004C460AE02A006F1C5B46089D21000A
:10311000A8473D000136307800287AD02528F2D122
:1031200010239A46083B9946043B9846023B0021EF
:103130009C46721C107816000300203BDBB2102B5B
:1031400003D8B94F9B00FB589F460300303B092B27
:103150003CD900230A932A2800D171E00023984625
:103160002E2847D00300683BDBB2122B1FD8AF4A92
:103170009B00D3589F46012301321943DAE7634687
:1031800001321943D6E7434601321943D2E7534689
:1031900001321943CEE74B4601321943CAE7707832
:1031A0006C2800D1BFE280235B0019430136030085
:1031B000253BDBB2532BA6D89D4A9B00D3589F4694
:1031C00080235B00707819430136F0E70027030085
:1031D000B800C01901364000C018337830381A00E2
:1031E000303A0700092AF3D90A90180000239846BC
:1031F0002E28B7D180237078DB0019430300303BC1
:10320000721C092B00D895E12A2800D1A6E11600EE
:10321000A8E7A146AA462C00D34503D801235B4268
:103220005B449A465B46524649460020089DA847A3
:1032300020001FB03CBC90469946A246AB46F0BD6C
:10324000099B40CB0A96002E03DB50780993561C4D
:1032500084E72838014370420A9009935078561C3D
:103260007CE7782800D1D4E1582800D168E26F28A3
:1032700000D152E3622800D1D8E110230A009A431A
:103280000B92692801D000F0A2FC0A230C934B0595
:1032900000D4D5E101230B9A9A430B92692800D1FF
:1032A000CEE1642800D1CBE10B9A802311009B0072
:1032B00019408A461A4200D032E3802311005B0095
:1032C000194089461A4201D000F002FC13005B0647
:1032D00000D510E30B9B1B0601D400F06EFC099B8C
:1032E00004CB1204120C924609935346002B00D0D3
:1032F00064E30B9A1033110099430B91520500D4EB
:103300005CE3002399460B9B06930A9B0593434677
:1033100004930C9B03930023DEE27078682800D1AD
:1033200007E280230136194341E780239B00707830
:10333000194301363BE7462800D174E10722099B77
:103340000491073393430A9A19000392424602926A
:103350000CC908980092019309912A005B4621004C
:10336000FFF7C4FC01360500D5E6099B1A0008CA20
:103370009146002B00D105E1212211438A460EA877
:1033800084461F216144099500220F27A4460D00A1
:1033900002E0202A0CD00B003C001C4020003730FB
:1033A000092C00D807380132A85419090F2BF0D87E
:1033B0006446099DF0E08B0700D4D1E1099B2A0007
:1033C00099466B1C98464B4601CB21009946089FB5
:1033D0005B46C0B2B8470A9B9C466544012B00D8A7
:1033E00090E2B2465E464746A846089D3A00330042
:1033F000013721002020A8474745F7D1B3464B4667
:1034000056463D000993013685E62A006F1C5B464F
:10341000089D21002520A84701363D007BE6C046D7
:10342000CD30001028380020602A0410A42A04108F
:10343000F02A0410099B04CB994643460992002BBD
:1034400000D097E013789C46002B00D1B3E3022311
:103450005B425A1C099B924618000A9F0B925044EB
:1034600002E0834200D169E15A780133002AF8D1A1
:10347000099A0A979B1A0B9380230A00DB001A40D3
:103480000C92194204D00B9B434501D943460B9340
:1034900002231A000A400D920B4200D184E16046DB
:1034A000002823D00C9B002B00D124E1A844C24665
:1034B000099B57465B1B9846089BB2462A0026008C
:1034C0005C469B4609E023003100551CD847434623
:1034D000585D002800D13FE12A009742F3D1A3466E
:1034E0003D00340056460D9B002B69D00B9B0A997A
:1034F000A846994264D98C466544ED1A089B474614
:103500009A46B04626005C463A0023000137310057
:103510002020D047AF42F7D1A346340046464FE0C3
:10352000D24B2078089300239A46002800D0E6E585
:10353000002471E6434606000A9F9800C018013235
:10354000400080191678030030003038303B0928DD
:10355000F3D93000984616000A9703E6099B023615
:1035600004CB9046D2434046D21710408046099380
:103570003078F7E513789C46002B00D11AE34346D8
:10358000013B66E710220800904311321043824647
:103590000022490500D4F2E653460693082305931A
:1035A00043460493102303930023029316AB019226
:1035B00000932A005B4621000898FFF763F8050096
:1035C0004B4601360993A6E5202302009A43472A79
:1035D00004D180231B01194302239843452801D1BC
:1035E000202319430722099B0491073393430A9A26
:1035F00019000392424602920CC908980092019366
:1036000009912A005B462100FFF734F901360500D5
:1036100081E510230C930C230A009A430B924B056F
:1036200000D43BE636E62023194387E602230C93B9
:103630000B910B996428EED10B9B5B0500D529E615
:103640000B9A802311009B0019408A461A4200D031
:10365000CEE0802311005B00194089461A4200D059
:10366000DBE113005B0600D51DE10B9B09991B06EE
:1036700000D499E208C91BB2D8171A18424092B276
:1036800009919246DA0F1292002B09D18023102261
:103690000B99DB000B4091430B91002B00D012E102
:1036A0000B9A6123920600D541230EA91F228C4656
:1036B000DBB262440A3B57461395A2464D460C9C2A
:1036C000B1460D9316000AE03033DBB20135735575
:1036D000A74200D21CE1202D00D119E107002100F2
:1036E000380000F03FFBCBB20929EDD90D9A944682
:1036F0006344DBB2EAE7099B5F465B1B98460A9B83
:10370000B3469A462600089C2A003B003100A04799
:1037100043460135585D0028F6D1534634000A93DC
:103720005E46BB46DFE6C0239B00B07819430236F5
:103730003DE5C023B0781943023638E50A979BE689
:103740000C230A009A4314331A4310230B920C9350
:103750004B0500D4A8E59DE5A34634005646C2E6D5
:103760000A9A012A00D82EE26B1E9F18089BB046C9
:10377000994626005C462A002300013531002020AE
:10378000C847BD42F7D1A34634004646099B3A00DC
:1037900001CB210098467D1C5B46089FC0B2B8470C
:1037A000434601360993B6E40B9A0A98531C90429B
:1037B00000D80AE243199B1A1F00089BB246260054
:1037C0005C469B462A002300013531002020D84763
:1037D000BD42F7D10A9BA34601330B93099B3400EA
:1037E0001B7856469C466046002800D05AE6E7E61D
:1037F0000722099B07339343013294469C44624657
:103800005F6809921A68FB17109311931098119929
:10381000030053400E930B007B400F9394460E9A87
:103820000F9B121A8B410E920F93FB0F624612935D
:1038300000233A439A463DD00B9A6123920600D565
:1038400041230022DBB20EA90A3B8C4691460D9320
:1038500043461F326244139515964D460E9E0F9FA8
:10386000A14690460C9C14930FE0C046B125001071
:103870003032D2B2434601355A55BA4500D17CE1C7
:10388000202D00D17CE106000F0022000023300033
:10389000390000F0A9FAD2B2092AE9D90D9B9C4659
:1038A0006244D2B2E6E7FF23099904C913401A0023
:1038B0000991E6E60B9A1033110099430B915205DA
:1038C000BAD5002399460B9B06930A9B0593434662
:1038D00004930C9B0393129B02934B46019316ABEC
:1038E0002A00009321005B460898FEF7CBFE0136C4
:1038F0000500FFF710FCFF22099B02CB11408A460E
:103900000993F2E44B46454609930136FFF703FC61
:103910004E465446A946139DD5E708230C9387E6E7
:103920000722099B07339343013294469C44624625
:1039300009921A685B6810009A46130052461343B6
:1039400007D10B9A1033110099430B91520500D502
:10395000D7E40B9A6123920600D541230022DBB203
:103960000EA90A3B8C4691460D9343461F32624492
:1039700057461295A2464D460400B14690460C9E0D
:1039800013930DE03032D2B2434601355A5500232D
:10399000BB4200D1FDE0202D00D1FDE004000F006E
:1039A000320000232000390000F01EFAD2B2092AAA
:1039B000E8D90D9B9C466244D2B2E5E70B9A61239D
:1039C000920600D54123DBB20EA90A3B1F228C468A
:1039D0000D93230062445446129517004D469A46B3
:1039E000B1460C9E08E03033DBB201357B55B44262
:1039F0000ED3202D0CD004003100200000F0B2F9CD
:103A0000CBB20929EFD90D9A94466344DBB2ECE7B7
:103A10004E465446A946129D75E4099B1A0008CAF1
:103A2000D91713925A184A409146DA0F1292002B76
:103A300008D1802310220B99DB000B4091430B919E
:103A4000002B2BD10B9A6123920600D541230EAA9D
:103A50001F279446DBB20A3B0D95674455460993F0
:103A6000A2464C46B1460C9E08E03033DBB201352D
:103A70007B55B4420ED3202D0CD004003100200021
:103A800000F070F9CBB20929EFD9099A9446634442
:103A9000DBB2ECE74E465446AA460D9D0B9B2A002E
:103AA00006930A9B21000593434604930C9B0898B8
:103AB0000393129B013602935346019316AB009376
:103AC0005B46FEF7DFFD139B05000993FFF723FB21
:103AD000099B04CB91461293002A08D1802310221F
:103AE0000B99DB000B4091430B91002B2BD10B9AD0
:103AF0006123920600D541230EAA1F279446DBB20C
:103B00000A3B0D95674455460993A2464C46B1467B
:103B10000C9E08E03033DBB201357B55B4420ED346
:103B2000202D0CD004003100200000F01BF9CBB296
:103B30000929EFD9099A94466344DBB2ECE74E4673
:103B40005446AA460D9D0B9B2A0006930A9B210012
:103B50000593434604930C9B089803930023029318
:103B60005346019316AB00935B46FEF78BFD129B09
:103B7000050009930136FFF7CEFAB44200D87FE67C
:103B8000149B4C460E960F97A9469846159E139D7A
:103B900099E6A64200D8FEE6139B4E469846A946F3
:103BA0005446129DFFF7AFFB08C9D8171A184240B8
:103BB000099166E500230B935EE4099B04CB9246D2
:103BC0000993FFF792FB2F00E0E50B930BE6063B12
:103BD0000C932EE50EB4012210B585B007AC08CCCD
:103BE00001000094524204480394FFF76FFA05B0B5
:103BF00010BC08BC03B01847A925001000B583B05D
:103C0000009313000A0001000248FFF75FFA03B0B7
:103C100000BDC046A925001000B585B00391012163
:103C200002900093034813004A4202A9FFF74EFA9C
:103C300005B000BD652800100FB410B50C4984B064
:103C400006AA08CA0C680392002C0BD0009201222D
:103C50000848524202A9A047012004B010BC08BC89
:103C600004B01847180001F0CFFC0020F5E7C0466B
:103C7000283800205528001010B5094A03001468A0
:103C800084B0002C08D0012200910648524203A9BA
:103C9000A047012004B010BD01F0B6FC0020F9E7F8
:103CA000283800205528001001480421014B1847EE
:103CB000F0120020D93C0010142310B50100188820
:103CC00004331B88984710BD162310B501001888CF
:103CD00002331B88984710BDF0B5C64600B50029D1
:103CE00016D0142304000125984618278900461889
:103CF0004346216818883B88984701C4431E984171
:103D000040420540A642F3D1280004BC9046F0BDD5
:103D10000125F9E7124A936F9B0815D29066D16688
:103D2000002905D0FFE7FFE7FFE7516F106F7047ED
:103D300004B580210906C2175140002800D0C843AD
:103D40003EF082FD002104BDF0B5146E556E576F34
:103D5000166FFFF7E3FF1466556657671667F0BDE9
:103D6000000000D0114A936F9B0813D21066516671
:103D7000002905D0FFE7FFE7FFE7516F106F70479D
:103D800004B5002801D00020C0433EF05DFD0021B5
:103D900004BDC046F0B5146E556E576F166FFFF731
:103DA000E5FF1466556657671667F0BD000000D042
:103DB00094464E4A926F9208624601D230E0C04665
:103DC000F0B54A4EB56F6D08FCD3346E756E776FE3
:103DD000366F00F025F89446444A146655665767D6
:103DE00016676246F0BDC0469446404A926F9208FC
:103DF000624601D258E0C046F0B53C4EB56F6D0842
:103E0000FCD3346E756E776F366F00F04DF89446C4
:103E1000364A14665566576716676246F0BDC04657
:103E2000002B24DB11D000293EDA00B5C943404203
:103E300000D1013100F038F8C943404200D10131CE
:103E4000DB43524200D1013300BD002AEBD10028F0
:103E500001D1002905D00020C90FC90701D1C043F5
:103E6000410800B53EF0B8FC0022002300BD00B5BB
:103E700000290ADBDB43524200D1013300F014F881
:103E8000C943404200D1013100BDC943404200D185
:103E90000131DB43524200D1013300F005F8DB432E
:103EA000524200D1013300BD002923D1002B18D18B
:103EB000002A0CD0BC460D4F38667A6600210023DC
:103EC000FFE7FFE7FFE77A6F386F67467047002824
:103ED00001D00748010000B53EF07EFC002200231F
:103EE00000BD02000B00002000217047000000D040
:103EF000FFFFFFFF002B00D0BFE0130C28D1002AEA
:103F0000E7D080B4114F39667A66FFE7FFE730B437
:103F1000040C7B6F396F1B0423433B667A66FFE713
:103F2000FFE7FFE7C04684B27B6F3D6F1B0423436E
:103F30003B667A66FFE7FFE7C04600232C042D0CA2
:103F40007A6F386F00196941B0BC7047000000D02B
:103F5000F0B594460025140E01D112020835140F55
:103F600001D112010435940F01D192000235D40F12
:103F700001D152000135D40B0134254F7C66254C0C
:103F80003C660E0C93B2FFE7FFE7FFE73C6F66432A
:103F9000360C7703BE467343DF0B5B04C01AB9418E
:103FA000130C7343DB18C91ACE086643360CB644AB
:103FB00093B273431F0F1B01C01AB941130C734313
:103FC0001F0B1B05C01AB941860D8F023E43664385
:103FD000360C092D24DB520A7243801A7703460AF5
:103FE0006643360C16235B1BDE40DF40BF19644678
:103FF0006643821B7046043506330100D940A84051
:10400000C01900D30131A24206D20023F0BD000046
:10401000000000D0FFFFFFFF121B0130F3D3F1E7D8
:1040200009277F1BFE406446A2B27243801A00D269
:104030000139220C7243130C1204821A99410B00AD
:104040007046043513370100F940A840801900D3A9
:104050000131002B02D1A2420AD2F0BD013000D3BF
:104060000131121BFAD2013BF8D1A24200D2F0BDBD
:10407000013000D30131121BF7E7F0B51C0C00D062
:1040800080E00CB400251C0A04D11B02160E334339
:10409000120208351C0B04D11B01160F3343120109
:1040A00004359C0B04D19B00960F334392000235DC
:1040B000DC0B02D192185B4101351C00971864415A
:1040C0000134464F7C66464C3C660E0CFFE7FFE72A
:1040D000FFE7C0463C6F6643360C7703BE4697B297
:1040E0007743C01B00D20139C01B00D201399FB2F7
:1040F0007743C91BC91B170C77437E04FF0B801B3A
:10410000B941CE086643360C0C2D33DBB644120B96
:104110001F053A431B0B97B27743C01B00D20139EE
:104120009FB27743C91B170C77433E043F0C801B9B
:10413000B941860D8F023E43664329277F1BFE400F
:104140000C3D7746AF40BF1930BCA2B2ABB2724350
:104150007343801A9941220C7243130C1204801A83
:10416000994102000B000137001BA941F9D2781ECA
:104170000021F0BD0C277F1BFE4077467F0BAF4030
:10418000FF19E0E700245D1C07D0144F7D663966F7
:10419000FFE7FFE7FFE7FFE73C6F95B29EB265439D
:1041A0006643401BB141150C1E0C65436643360443
:1041B0002F0C3E432D04401BB141994204D2020012
:1041C0000B0020000021F0BD01D19042F7D3801AEE
:1041D000994101349942F2D3F6E70000000000D083
:1041E000FFFFFFFF44464D4656465F46F0B470471A
:1041F000F0BCA046A946B246BB4670474840414085
:10420000484018B41B4B5B68FC46019308BD04DFB3
:10421000EF45001018B4174B1B68FC46019308BD0E
:1042200000DFF94500109446134A926F920809D2B4
:10423000624618B40F4BDB68FC46019308BD0CDFE7
:10424000B14800100C4AF0B5146E556E576F166FDA
:104250006246FFF7EEFF084A146655665767166711
:10426000F0BD18B4034B9B68FC46019308BD08DF02
:10427000554700106C380020000000D0FFB55040BA
:104280004240504059404B40594000E0FFB5154F67
:104290004C00640D03D0BC4204D10C0314D80020A0
:1042A000090D09055C00640D03D0BC4204D11C0358
:1042B0000AD800221B0D1B0501264B4009D44B4098
:1042C00003D58B4200D18242FFBD9942FCD190427E
:1042D000FFBD0B43DB1803431343F5D0C943491813
:1042E000FFBD0000FF07000000B5FFF7CFFF01D0C2
:1042F000002000BD012000BD00B5FFF7C7FF8041D1
:1043000000BDC04600B5FFF7C1FF01D9002000BDC8
:10431000012000BD00B5FFF7B1FF01D9002000BDAD
:10432000012000BD00B5FFF7A9FF804100BD0120BD
:1043300040054A00121804D85A00121801D800206B
:1043400070470120704700207047000000210028BE
:1043500005D17047C1174840401AFAD0C90713B5B4
:10436000064B1B6898470CBC441CA2401005120B5E
:104370000349091B09051943114310BD48380020A2
:104380001F04000010B54C00620D8023D218DB0022
:10439000D21A5B057E2A10DD9E3A13DACC17090388
:1043A000490819435242D140640001341532202A91
:1043B00005DAD0400843604310BD002010BD084618
:1043C000604310BDC80FC018013810BD18B4044BAD
:1043D0005B6AFC46019308BD24DF8D4C0010000091
:1043E0006C38002018B4044BDB6DFC46019308BD0B
:1043F0005CDF994D001000006C380020C94211D3D9
:1044000000B549004908002200F018F8002904D43A
:10441000002240428A41114600BD80210906002049
:1044200000BD000018B4044BDB6EFC46019308BDD0
:104430006CDF9B4C001000006C38002018B4044B5B
:104440009B6FFC46019308BD78DFB74C001000005D
:104450006C38002018B4044BDB6FFC46019308BD98
:104460007CDF254D001000006C38002018B4044B90
:104470009B69FC46019308BD18DF7D4A00100000CF
:104480006C38002018B4044B9B6DFC46019308BDAA
:1044900058DFA94F001000006C380020132370B5BE
:1044A0001D78012D15D010DD2748FFF70DFC274C96
:1044B00001008022200000F04BFF022D06D024488E
:1044C000FFF7FAFB234B186070BD204C224AA26410
:1044D000F5E72E001D4C204AA3085B421E401D42FA
:1044E0002FD0330022602020B1006118801B0A60A9
:1044F0004A608A60CA600A614A618A61CA610A6266
:104500004A628A62CA620A634A638A63CA630A6445
:104510004A648A64CA640A654A658A65CA650A6625
:104520004A668A66CA660A674A674008102803D145
:104530008A67CA67A264C2E71E339B00E250A26486
:10454000BDE70023CFE7C046534400006C3800208D
:104550004C33000048380020BD450010F8B502007B
:104560000B0004000D0000201249FFF74AFE002254
:1045700006000F000F4B20002900FFF74BFE020042
:104580000B0030003900FFF76CFE4B0006000A00FC
:104590005B0D01D000290ADB11003000FFF766FF38
:1045A00002000B0020002900FFF76CFFF8BD00207F
:1045B0000149FBE70000F03F0000F07F07B56046CF
:1045C00001880A0A0230DF2AFAD1C9B2820804D36C
:1045D000028840880004104300E00068014A5050FF
:1045E000039007BD6C3800200FB403BC0CBCF0B5C1
:1045F0000124E407634000E0F0B50C0DCF0F661E08
:104600003605891B640503D3C943404200D30131F9
:10461000640D03D0661CF60A07D0E41B00207F005F
:10462000791C89078912803C24031D0DDF0F6E1E43
:1046300036059B1B6D0503D3DB43524200D3013388
:104640006D0D03D06E1CF60A07D0ED1B00227F0013
:104650007B1C9B079B12803D2D032F1B661B58D490
:10466000A446202E46DA20371400BC401D00BD4071
:10467000F24033412A4380185941CB0F05D0C9433A
:10468000C043002264425041514162464D0D28D141
:104690000D0D07D100281FD0241940414941013A8E
:1046A0000D0DF9D0640006D3013000D30131002C88
:1046B00001D140084000013A0BD4941CE40A04D113
:1046C00012051144DB071944F0BDD907204B1943EB
:1046D00000E0D9070020F0BD0029DDD1002CDBD19E
:1046E000F0BD0132C6074008CD0728434908002E17
:1046F000E1D0D9E73C2E29DA203E40371400BC40F7
:1047000000D00124F24014431A00BB401C43D317CD
:10471000ACE7AC46202F08DA20360400B4400D0088
:10472000B540F84039412843A5E73C2F0CDA203F3B
:1047300040360400B44000D00124F840044308008F
:10474000B1400C43C117EAE710001900002494E7B8
:104750000000F07FF0B50C0D661E3605891BE60AD9
:104760006405640D02D0651CED0A04D0002001210F
:104770000905803C2403A4461C0D671E3F05DB1B76
:10478000E70A6405640D02D0651CED0A04D000221E
:1047900001231B05803C24037740644497B484B212
:1047A00096B27443070C7E43150C6F4380B2684386
:1047B000361802D3012000043F183004350C0019CC
:1047C0007D41844688B29AB250430C0C62431F0C60
:1047D0007C438EB27E43921902D301263604A4197B
:1047E0001604170C3618674101BC81B29AB25143C6
:1047F000040C62431B0C5C4380B25843121802D372
:104800000120000424181004130C401863412D18D3
:104810005E410020474106BC88B293B258430C0C5D
:104820006343120C544389B251435B1802D30121F4
:104830000904641819041A0C091862416D185641CC
:104840000020474118BCF902720D1143F0026A0DB5
:104850001043ED020A0D03D16D1940414941013B5E
:10486000124E9B1B7600B3420ED26D0007D301306F
:10487000002671416646354301D1400840001B05C2
:10488000C918E4072144F0BD0BDA013306D1013029
:1048900004D101314F0D01D04908F2E7E1070020B2
:1048A000F0BD013631050020EBE70000FF030000FA
:1048B000F0B51C0D671E3F05DB1BE70A6405640DA0
:1048C00002D0661CF60A04D0002201231B05803C9E
:1048D0002403D0252D060026F6432E661E096E669B
:1048E000CE0FF619B44649004F0D02D07E1CF60AD1
:1048F00003D000200021403F3F033E1BB600B444DC
:10490000013F7F05C91B49082E6F013676089C02BE
:10491000950D25437543ED137543AD1301356D10AA
:10492000F603761B0CB4CC02450D2C43A2B2B3B2F5
:104930005A43270C7B43350C6F43A4B26C431B19BD
:1049400002D3012424043F191C041D0CA4187D412A
:1049500024196D41009A91B2ACB26143170C7C43AB
:104960002B0C5F4392B25A43A41802D301221204C3
:10497000BF182204230C52187B41019C6C431B1965
:10498000520ED9010A434401A01A81B2B2B2514376
:1049900003145A43360C734387B27743D617D219A0
:1049A00000277E4136049B191704160C7F185E41C0
:1049B0007316ED18F301002680337541A90F06D157
:1049C0006400690AE8055B0A184309D22FE0042253
:1049D000944480337541A90AA8059B0A184326D33D
:1049E000404149412404009A019B0D005543641B3A
:1049F0004343E41A95B286B27543170C7E43030C09
:104A00005F4392B25A43B61802D301221204BF1870
:104A10003204330C52197B4152429C41002C02D487
:104A20000022013051414008CA071043490802B032
:104A30006246D7079210084BD218084B9A4203D20D
:104A400012058918C919F0BD0020002A01DC3900BF
:104A5000F0BD01331905F5E7FD030000FE07000076
:104A600007DA002107E0C90FC907520D03D0C912A8
:104A700001E04C49090500207047C0464A00F2D2C7
:104A8000520D013A484B9A42EAD2F0B51405091B7F
:104A9000520801D3001849419B08D21812059446C8
:104AA00040A44A0CA25C0B09534353431B135343CA
:104AB0005B131202D21A13005B435B0B4C08634377
:104AC000DB135343DB1501335B10D21A130CD21ADC
:104AD00013005B438902840D21438DB29EB275435E
:104AE0000F0C7E431B0C5F438CB25C43361902D320
:104AF000012424043F193404330C64197B419D01C3
:104B0000A40E2C432034A5B25543241454432D0C39
:104B10006419A411D203121B95B28EB27543170CFF
:104B20007E430C0C674393B26343F61802D3012310
:104B30001B04FF183304340C5B197C41DB186441FF
:104B4000DB18002363419EB276439DB21F0C7D4368
:104B50007F436C04ED0BA4197D4106028F08361BC0
:104B6000AF417D07F6086E41B4B295B26C4337147D
:104B70007D43120C5743B6B25643EA17AD190026CF
:104B800072411204BF182E042A0C36197A410832D9
:104B9000521117D29D0A9C05D11710196941614421
:104BA000F0BD0000FF070000FE070000F8EBDFD6B5
:104BB000CDC5BEB8B2ADA8A4A09C9995928F8D8AA0
:104BC0008885838152415D0ADC05D11714194D4156
:104BD0002B006343A6B27643A2B2270C7A437F43ED
:104BE0005104D20B89197A41D218D2188005494252
:104BF000904102D4002301345D4160086908ED074B
:104C000028436144F0BDC046624618CA94465A46DD
:104C1000002A20DB04E0624618CA944600291ADA0A
:104C2000C01861415B463B415C46B4405246FA4085
:104C3000224344464D4662416B41904699462B467D
:104C4000B3403D41FC401C4352465B46A241AB4150
:104C500092469B467047C01AA1414B463B414C4689
:104C6000B4404246FA40224354465D4662416B419D
:104C700092469B462B46B3403D41FC401C43424676
:104C80004B46A241AB41904699467047002200B581
:104C9000203200F010F8080000BD002200B500F03E
:104CA0000CF8CA179A4200D100BDD8430121C907A8
:104CB000414000BD00220B150AD410B5944600F007
:104CC000A7F81414013400DA0021CB17144C204744
:104CD0000020002170476244343A0CD40C2A07DAD1
:104CE00004009140904052422032D440214310BDF4
:104CF000D843D94310BD203207D40C4694405242C9
:104D000020321141D040204310BD0800C917203285
:104D100003D452422032104110BD1800190010BDBA
:104D2000D74C00104A00520D144BD21A13DDFF2A43
:104D30001EDAD205CB0FDB071A43C300400F09036D
:104D4000490A084310435B0001D301D0013070478A
:104D50004308FBD2704702D0C80FC00770470A0350
:104D600012130132F8D1420F072AF5D1012200E0D7
:104D7000FF22C80F00028018C005704780030000A2
:104D800000210A00002104E000210A00C11704E00C
:104D90000022002306E0C0460022CB1758405940AD
:104DA000C01A994130B5184CA21A002903D101004C
:104DB00010D00020203A4C1512D104D2013A00182C
:104DC00049414C0DFAD3114CA24204D21205891864
:104DD000DB07C91830BDD243520D00200021F5E792
:104DE00003D4013A00184941FBD50B324405C00AEF
:104DF0004D052843C90A640003D000246041614185
:104E0000E1E7E0D34408F8E732040000FE070000C1
:104E10000A0DCC0F531E1B05C91A520503D3C943F3
:104E2000404200D30131520D03D0531CDB0A07D09E
:104E3000121B00206400611C89078912803A12034A
:104E4000014BD21A70470000FF030000023225D444
:104E50000C2A1CDA1125AD1A0B002B41083207353C
:104E60000600EE40904091403143F0CC63431A1568
:104E700000235A41554356435743BF02F412760567
:104E800076196741ED177F19801BB94170470C22D5
:104E90000020C917490001310905DBE70902030EAB
:104EA000194300025342203208D40C0019419440A7
:104EB000D840204300225041514170470800C91793
:104EC000203B2032F1D50020002100227047000055
:104ED00000B5FFF79DFF30A4FFF7B8FF00242C4D6D
:104EE0002C4ED20702D3F6436D426641520004D2E3
:104EF000A246A346A846B14603E0A046A146AA465C
:104F0000B3466EA4A44601271F26FFF784FE01378F
:104F1000013E212FF9D100BD594684B28DB26C43B8
:104F2000061475430B145E4382B25A43AD18EA1758
:104F300000D7D2431204B6182A042B0C121973415D
:104F4000404649469D009B17920F2A439041994144
:104F50003E2222E7494684B28DB26C430614754363
:104F60000B145E4382B25A43AD18EA1700D7D243FE
:104F70001204B6182A042B0C1219734150465946D4
:104F80009D009B17920F2A43504159413E2204E74E
:104F9000BB4DF09DC556F6367D5100001A611400D8
:104FA00085880A00FB211900F0B5FFF71BF9404D79
:104FB0000C002C4001D0AC4202D1090D09050020A3
:104FC0001C002C4001D0AC4202D11B0D1B0500225D
:104FD0000026ED02002B04D502266B40694000D468
:104FE00076424F1904D599420CDD0136694003E041
:104FF000BB4207DA013E6B40070010003A000F0089
:1050000019003B0040B4002A0FD1002B0AD05C00ED
:105010006415013409D14C006415013402D1013901
:10502000013B02E0002000212EE0FFF741FC3E2280
:10503000FFF734FE82468B46002000218046012285
:10504000920791461DA4A44601271F26FFF7DCFD09
:105050000137013E212FF9D14A4653460C3A01242B
:105060006407002752081B0005D4934100197941B9
:105070006408F7D104E05341001BB9416408F1D141
:10508000CE0749104008304340BC002E0AD0094CDE
:10509000094D01D5E443ED43F60701D100196941FB
:1050A000001969413D22FFF778FEFFF7A1F8F0BD36
:1050B0000000F07F8D305A88A8F64332694FBB61FB
:1050C0000567AC1DB16E4096FCBAAD0F72DB0BAB41
:1050D000A66EF50739BD9FE576ABFE034B6297BA26
:1050E0005BD5FF01D694DBDDAAFAFF005DEAEE5640
:1050F00055FF7F006E77B7AAEAFF3F00BCBB55554E
:10510000FDFF1F00DEADAAAAFFFF0F006F5555F58A
:10511000FFFF0700ABAAAAFEFFFF03005555D5FF0E
:10512000FFFF0100ABAAFAFFFFFF00005555FFFF8C
:10513000FF7F0000ABEAFFFFFF3F000055FDFFFFD0
:10514000FF1F0000ABFFFFFFFF0F0000F5FFFFFF99
:10515000FF070000FFFFFFFFFF030000000000004B
:10516000000200000000000000010000000000003C
:10517000800000000000000040000000000000006F
:1051800020000000000000001000000000000000EF
:105190000800000000000000040000000000000003
:1051A000020000000000000001000000000000807C
:1051B0000000000000000040000000005143434395
:1051C000C9188C46110C83B24B4310B4040C6143D4
:1051D00092B280B2504362431C041B0C001910BCF5
:1051E00059411304120CC01851416144704700002A
:1051F00007B548404140484001E0C04607B542007D
:10520000120E03D0FF2A03D1420218D8C00DC005E8
:105210004A00120E03D0FF2A03D14A020FD8C90D4B
:10522000C9050122414005D4414001D5814207BD55
:10523000884207BD0143491801D0C043001807BD8B
:1052400000B5FFF7DBFF01D0002000BD012000BD4D
:1052500000B5FFF7D3FF01D9002000BD012000BD3C
:1052600001231B064200D21804D84A00D21801D8E4
:105270000020704701207047132310B512481C7896
:10528000FEF722FD0100012C0AD003DD80220F4829
:1052900000F05EF80E48FEF70FFD0E4B186010BDD3
:1052A0000A4C5422200000F053F80B4B6365A365B1
:1052B000E36523666366A366E36623676367A367A4
:1052C000E3672362E361E5E7534600006C390020A1
:1052D0004C33000048380020DD52001007B560460E
:1052E00001880A0A0230DF2AFAD1C9B2820804D33F
:1052F000028840880004104300E00068014A5050D2
:10530000039007BD6C39002010B5040031F022FA7B
:10531000002804D0034B04199C4200D810BD024859
:10532000FCF750FF00000420902C041010B531F061
:105330001BFA10BD01480421014B1847001300203F
:10534000D93C0010014B1B681847000000130020D7
:10535000014B5B681847000000130020030010B5E4
:1053600008001B681100984710BDC046F8B54746B5
:10537000CE4680B5437C07000D001600002B37D0C9
:1053800000240020002A1EDD4B1E98461B4B994628
:10539000002C2BD043461B5D0D3B5A425341DBB2E0
:1053A0002A5D0A2A13D00134A642F1DC864203DDCD
:1053B000311A3B6828189847AD19013D2B780D3BF1
:1053C0005A4253413B740CBC90469946F8BD002BA1
:1053D000E9D1A04203DA211A3B68281898474846C9
:1053E00002213B68013498472000DDE73B7CD7E78A
:1053F0000368110028009847E5E7C046182D0410FF
:10540000F0B5C6460C000968060000B5802906D034
:105410004B1C23606418267104BC9046F0BD0F4BF2
:105420001D68002D16D0231D98460D4F02E0ED6833
:10543000002D0FD02B68002BF9D03B68002B01D03A
:10544000AB42F4D1280041462268FFF78FFFED6898
:10545000002DEFD101230021DBE7C0463C370020BF
:1054600000380020F0B557464E464546DE461C0043
:10547000D023E0B51B061F68354B83B006000D0036
:10548000180001A991469A463DF0EEF980460028A1
:1054900008D1019B7FB29F4204D050463DF014FAE0
:1054A000012398466B1C03D1300033F0EDF8050062
:1054B000002C2AD1274F284B1C68002C18D04B46B3
:1054C000002B24D1254B994602E0E468002C0FD034
:1054D0002368002BF9D04B461B68002B01D0A34258
:1054E000F3D120002A003100B847E468002CEFD146
:1054F0004346002B28D1681E8541E8B203B03CBC6E
:1055000090469946A246AB46F0BD154FD3E7134BE4
:1055100099460A239B4602E0E468002CE8D0236801
:10552000002BF9D04B461B68002B01D0A342F3D1CE
:105530002A0031002000B8475A466B4620001A71F5
:1055400001A90122B847E7E750463DF03DF9D2E70F
:10555000D81D00206D5300103C370020003800207B
:105560005D530010F0B54746CE4680B583B06B461C
:10557000DF1CD02338701B061C68204B060001A9D5
:10558000180098463DF070F9051E22D01C4B1C688F
:10559000002C2AD01B4B994602E0E468002C10D066
:1055A0002368002BF9D04B461B68002B01D0A34287
:1055B000F3D1200001223900FFF7D8FEE468002C67
:1055C000EED1002D11D1300003B00CBC90469946AD
:1055D000F0BD019B64B29C420BD040463DF074F993
:1055E000074B01251C68002CD4D140463DF0ECF857
:1055F000E9E7034B1C68002CCCD1E4E7D81D002060
:105600003C3700200038002070B5040033F03CF82F
:1056100000230100050001222000FFF723FF084BB3
:105620001C68002C06D06368002B05D09847E468FE
:10563000002CF8D1280070BDE468002CF3D1F9E704
:105640003C370020F0B5CE46474680B50D00160029
:1056500083B000282CD11C4B1C4F1A685B68019248
:1056600000931B4B99461B4B98464B461C68002CDD
:1056700003D115E0E468002C12D043461B68002BD0
:1056800001D0A342F6D1A368002BF3D0310028004B
:1056900098470028EEDD03B00CBC90469946F0BD5B
:1056A0007B6A009A9A4209D8BA6A01998A4202D35F
:1056B00001204042EFE7009A9A42F9D101200021EF
:1056C000FCF74EF9D1E7C046C02904100040054060
:1056D0003C37002000380020F0B54F46D6464646FD
:1056E000C0B501380F00150082B0012841D8D02381
:1056F0001B061C68204B01A9180099463DF0B4F820
:10570000061E07D1019B64B29C4203D048463DF07F
:10571000DBF80136A8466B1C03D1380032F0B4FF29
:105720008046164B1C68002C16D0154B9A4602E09A
:10573000E468002C10D02368002BF9D053461B6876
:10574000002B01D09C42F3D1200042463900FFF7E4
:105750000DFEE468002CEED1002E06D1280002B028
:105760001CBC90469946A246F0BD48463DF02CF838
:10577000F4E701256D42F1E7D81D00203C370020F9
:10578000003800200A4A1368002B05D10CE01A00EB
:10579000DB680C32002B07D09842F8D1002902D1E7
:1057A000C3681360C16070470029FCD01060FAE73D
:1057B0003C370020F0B54746CE46D02380B51B06C7
:1057C0001D682E4BA5B007000C00180003A99846D1
:1057D0003DF04AF8061E07D1039B6DB29D4203D0EF
:1057E00040463DF071F801368422002103A8FFF7FE
:1057F000A9FD23003A00224803A9FEF70DFA039BF6
:105800000700002B14D11F4B1C68002C06D06368C6
:10581000002B0BD09847E468002CF8D1002E27D13C
:10582000380025B00CBC90469946F0BDE468ECE722
:10583000144B1D689946002D1ED0134C02E0ED68F4
:10584000002D11D02B68002BF9D02368002B01D03C
:10585000AB42F4D1039B28001A0004A90193FFF77F
:1058600085FDED68002DEDD14B4603951C68CCE716
:1058700040463CF0A9FFD3E70395CFE7D81D0020B1
:10588000015400103C370020003800200FB400B550
:1058900083B004A901C90191FFF78CFF03B008BCD4
:1058A00004B0184710B500F043F810BDF0B50D1E58
:1058B00015DD0E4B0D271A680D4B4519D3185942AB
:1058C0004B410C495B005E5E20210478A64207D064
:1058D00093691942FCD101301460A842F5D1F0BDA2
:1058E00093691942FCD11760F2E7C0466038002086
:1058F0000080FCBF6838002030B50500002912DDAB
:1059000000201024094B013D1A6893691C4208D1FC
:10591000013093691C42FCD113682B548142F4D1AD
:1059200030BD0028FCD103204042F9E76038002058
:10593000E12110B50B4B0C481B780C4B49021B782E
:105940000B4B1860FCF71CFB02210020FBF7A6FAAA
:1059500002210120FBF7A2FA01210648FFF712FFFE
:1059600010BDC04654D704100040034058D704105F
:105970006038002010130020F8B5DE4657464E462A
:1059800045468346E0B505200C00FCF797FD060070
:10599000600821008019FEF7E5F94300984680442D
:1059A000070005214046FEF7DDF93B1A9A46204BD9
:1059B0008146700080199C4234D81E49FEF7D2F906
:1059C000451C5B461C680023E36622680433534091
:1059D00006221A4080235B0123431A605346E36189
:1059E0004B462362434601204F2B03D950214046AA
:1059F000FEF7B8F9A0232200E0508023E06F7C324C
:105A000045402D045B0113432D0C1D60012339001B
:105A10003000E366FEF7A6F93CBC90469946A246E4
:105A2000AB46F8BD0449FEF79DF9451CC9E7C046E1
:105A30003F420F008096980040787D01104A70B573
:105A4000821A53425A41072352429A430D4B103255
:105A50001A600D4B0D4C1A601500A3689D432B1E58
:105A6000FAD166240268FF340571D5661460633C80
:105A70008833FF3CD5639563D450FFF77DFF70BD3D
:105A80002413002000E0004000F0004000C000406F
:105A9000F0B54546DE4657464E46E0B583B00500B4
:105AA0000CA800782C6884460020E0666160012123
:105AB000E166002B55DD591E8846012761464F409F
:105AC00010218A467031894646467F0200930021A4
:105AD000002803D129794B1E994189020023984659
