:020000041000EA
:1000000000B5324B212058609868022188439860DF
:10001000D860186158612E4B002199600221596106
:100020000121F02299502B49196001219960352056
:1000300000F044F80222904214D00621196600F024
:1000400034F8196E01211966002018661A6600F04E
:100050002CF8196E196E196E052000F02FF8012189
:100060000842F9D1002199601B49196000215960AB
:100070001A491B48016001219960EB211966A021F2
:10008000196600F012F800219960164914480160C1
:100090000121996001BC002800D000471248134993
:1000A000086003C880F30888084703B5996A0420EC
:1000B0000142FBD001200142F8D103BD02B5186610
:1000C0001866FFF7F2FF186E186E02BD00000240BE
:1000D000000000180000070000035F00212200005C
:1000E000F4000018222000A00001001008ED00E03C
:1000F00000000000000000000000000074B24E7A12
:1001000000200420F7010010C3010010C5010010F9
:10011000C1010010C1010010C1010010C101001097
:10012000C1010010C1010010C1010010C701001081
:10013000C1010010C1010010C9010010CB01001065
:10014000CD010010CD010010CD010010CD01001037
:10015000CD010010CD010010CD010010CD01001027
:10016000CD010010CD010010CD010010CD01001017
:10017000CD010010CD010010CD010010CD01001007
:10018000CD010010CD010010CD010010CD010010F7
:10019000CD010010CD010010CD010010CD010010E7
:1001A000CD010010CD010010CD010010CD010010D7
:1001B000CD010010CD010010CD010010CD010010C7
:1001C00000BE00BE00BE00BE00BE00BE00F04BF888
:1001D000103800BEF2EB887104F604102CF60410FF
:1001E0003402001090A31AE700202149086006C8D5
:1001F00081F3088810471F48006800282FD10DA4FC
:100200000ECC002902D000F012F8F9E71A491B4A77
:10021000002000E001C19142FCD1194988471949E9
:1002200088471949884700BEFDE701C901C29A42C3
:10023000FBD370472CF60410C0000020141E0020D1
:100240008013051000000420000004208013051016
:1002500000100420001004200000000070470B482C
:1002600003F02EFE0047EFF30580C0B27047000098
:1002700008ED00E0000000D0181E00201C3B00200C
:100280006D220010750500109523001057560000D0
:1002900006005250ABB3605364490410060052503C
:1002A000861C030274490410060052505422A29D79
:1002B0008449041005005250DE65F468801305106F
:1002C000F8B5C0460448054B10B5834203D0044B33
:1002D000002B00D0984710BD141E0020141E0020D3
:1002E0000000000006480749091A8B10C90FC918F9
:1002F00010B5491003D0044B002B00D0984710BD17
:10030000141E0020141E00200000000010B5074C31
:100310002378002B09D1FFF7D5FF054B002B02D026
:10032000044800E000BF0123237010BD9820002086
:100330000000000088450410054B10B5002B03D0C9
:100340000449054800E000BFFFF7CCFF10BDC046E0
:10035000000000009C20002088450410F0B5C6462F
:1003600000B5056843686A465B1B9C46DE10073390
:10037000DB08DB00D31A00AF9D466346E846002B3E
:1003800018DD6B46002403CD0204120E5A700202DF
:10039000120E9A70020EDA700A04120E5A710A02D4
:1003A000120E9A7101340A0E18701971DA7108333D
:1003B000B442E8DB0A4A93699B060DD46346002BDE
:1003C0000AD046462021F01893691942FCD13378AF
:1003D000013613608642F7D1BD4604BC9046F0BD9D
:1003E00000400340F0B5D6464F464646C0B594B0EF
:1003F00001F0B0FB02000B0014001D004F495048F3
:100400000A604B604F490E684F68A41BBD410A60EB
:100410004B604D4B04604560186804F09FF8040081
:10042000802000060D180022484B2000290003F010
:10043000FEFF474C474D06000F002000290005F045
:10044000BDFF454B29009A46444B20009846444B3B
:10045000424699460093534606F016F8200053464C
:100460004A46414606F080F83E4D3B0028003200E7
:10047000414608F059FE28005246494607F018F850
:10048000394C52462000494609F0E2FE32003B005A
:100490004146200009F0E0FA200009F09BFC290009
:1004A000324D9C31280006F021FB2100304C3031C8
:1004B000200006F01BFB2A696B6908920993AA6861
:1004C000EB680A920B932A686B680C920D93226971
:1004D00063690E920F93A268E368109211932368E8
:1004E00064680022029303941293139400230492ED
:1004F00005930023302006930CF086FA0400302286
:10050000303408A90490069405F04CFA04A8059428
:10051000FFF724FF0498002801D00BF045FC0120D0
:1005200014B01CBC90469946A246F0BD0498002821
:1005300001D00BF039FC0BF0E1FCC046902000200C
:10054000181F0020882000207412002000408F40D7
:10055000501F0020C0380020D8380020B0380020BC
:1005600070370020F8370020E81F0020201F0020EF
:10057000381F002030B585B005F0BEFCE1211248DF
:10058000490201F001FE114C200005F065FE21003A
:100590000F480AF041F80F4B1D6801F04FF9FA229D
:1005A0000400002392002800E91705F0DBF80B0097
:1005B000094902000291002101910849200000919F
:1005C00001F040F9FEE7C04600400340501F002004
:1005D000E81F002074120020D01F0020E503001047
:1005E00070B5046845680600AC4208D02068002851
:1005F0000CD00C340BF0D8FBA542F7D13568002D98
:1006000002D028000BF0D0FB300070BD0C34A542A6
:10061000ECD1F3E70023F0B504000360436083608E
:10062000AFB018200CF0F0F9050018351822714908
:100630002060A56005F0B6F9002200230092019326
:10064000029203936C4B6D4A182004920593002389
:100650006560E360236163610CF0D6F9050018352D
:10066000182269466561E06005F09CF92561250066
:100670001835002203212800614B0AF0D3FD260023
:1006800024360022032130005D4B0AF0CBFD1822F6
:10069000002108A805F080F90022594B202006927D
:1006A0000793002323636363A3630CF0ADF9070092
:1006B0002037202206A92063A76305F073F91822CA
:1006C0000021676310A805F067F900224C4B202039
:1006D0000E920F930023E363236463640CF094F998
:1006E0000700203720220EA9E063676405F05AF95D
:1006F00018220021276418A805F04EF90022404B6B
:100700002020169217930023A364E36423650CF062
:100710007BF907002037202216A9A064276505F081
:1007200041F918220021E76420A805F035F90022DC
:10073000334B20201E921F9300236365A365E3655E
:100740000CF062F90700203720221EA96065E765DA
:1007500005F028F918220021A76528A805F01CF942
:100760000022274B202026922793002323666366CE
:10077000A3660CF049F90500203520222066A56605
:1007800026A905F00FF9200065662FB0F0BD23E023
:10079000206E002801D00BF007FB606D002801D00F
:1007A0000BF002FBA06C002801D00BF0FDFAE06B0F
:1007B000002801D00BF0F8FA206B002801D00BF0D4
:1007C000F3FA3000FFF70CFF2800FFF709FFE0689D
:1007D000002801D00BF0E8FA2068002801D00BF0C7
:1007E000E3FA0BF08BFBE7E7EEE7DBE7EFE7D4E7B5
:1007F000DDE7ECE750460410B89E23401F85EB511F
:100800000000F03FF0B50400CE464746260080B514
:100810000721A24AA24BC5B00C360AF003FD0721FE
:1008200030009E4A9E4B0AF0FDFC27001837072136
:1008300038009C4A9C4B0AF0F5FC24239846A044BF
:1008400006214046994A9A4B0AF0ECFC00253022DA
:10085000002125636563A563E56325646564A5647C
:10086000E56425656565A565E5651CA805F094F852
:100870000022904B382025666566A5661A921B9368
:100880000CF0C2F80500383538221AA92066A56692
:1008900005F088F83022002165662AA805F07CF86A
:1008A0000022844B3820289229930023E366236793
:1008B00063670CF0A9F805003835382228A9E066EE
:1008C000656705F06FF8182200216846256705F076
:1008D00063F800238022A367E3671820A3500CF07D
:1008E00093F80500802318351822A0676946E55063
:1008F00005F058F800220023069207930892099306
:1009000000226C4BE56725000A920B93002384229A
:100910008435A35018206B60AB600CF075F884230D
:10092000E0506C3B994681444B461822AB6006A9C7
:1009300005F038F84B4610226B6000210EA805F038
:100940002BF800225B4B25000C920D930023902284
:100950009035A35018206B60AB600CF055F89023D5
:10096000E050783B994681444B461822AB600CA975
:1009700005F018F84B4618226B60002114A805F00A
:100980000BF800224B4B25001292139300239C225C
:100990009C35A35020206B60AB600CF035F89C2395
:1009A000E0507C3B994681444B462022AB6012A923
:1009B00004F0F8FF4B4630226B60002138A804F0A9
:1009C000EBFF00223B4B2500369237930023A822F1
:1009D000A835A35038206B60AB600CF015F806000A
:1009E000A8233836E0503822AE6036A904F0DAFF8A
:1009F00020006E6045B00CBC90469946F0BD2000CA
:100A0000FFF7EEFD0BF07AFAA823E058002801D09A
:100A10000BF0CAF99C23E058002801D00BF0C4F970
:100A20009023E058002801D00BF0BEF98423E05851
:100A3000002801D00BF0B8F9A06F002801D00BF00E
:100A4000B3F9E06E002801D00BF0AEF9206E00285B
:100A500019D120005430FFF7C3FD20004830FFF7C4
:100A6000BFFD20003C30FFF7BBFD20003030FFF71A
:100A7000B7FD4046FFF7B4FD3800FFF7B1FD300089
:100A8000FFF7AEFDBBE70BF08FF9E2E7C2E7C7E780
:100A9000CCE7D1E7D5E7D9E7EEE7F0E77B14AE473F
:100AA000E17A843FFCA9F1D24D62503F9A9999991D
:100AB0009999B93F0000F03FF0B54E46DE464546F5
:100AC0005746E0B5E64BE74AB3B002604360050025
:100AD00018200BF099FF040029AE1822E2491834BF
:100AE0002990B46004F05EFF182074600BF08CFF56
:100AF00004001822DD4918347461F06004F052FFDC
:100B0000182034610BF080FF040018221834D849F3
:100B1000B061346204F046FF00232420AB60EB6038
:100B20002B61F4610BF070FF0300243301932B6100
:100B30000023040037009B460390A8603B68002018
:100B400099464A467B6802939B1A5A469846226009
:100B5000DB106260A26007D080225205934200D36E
:100B6000BBE140460BF050FF8246C2445346A360AF
:100B7000029B2060994503D04246494604F012FF8B
:100B800053466360019B0C340C37A342D6D1EC6012
:100B900032AC0C3C2068002800D193E10BF004F942
:100BA000B442F6D1002318206B61AB61EB610BF00E
:100BB0002BFF040018341822AE496861EC6104F080
:100BC000F1FEAD48AD49AE4AA864E9640020AD4BE2
:100BD000AD492A626B62AD4AAD4B04900591AA62A1
:100BE000EB62AC4AAC4BAD482A636B63AB4AAC4B8F
:100BF000AC49AA63EB63AC4AAC4B069007912A64FC
:100C00006B641820AC61089209930BF0FDFE0400A0
:100C10001822183404A92990B46004F0C3FE0022FD
:100C200000230A920B930022974B18200C920D93ED
:100C3000802212069446AB6C74600E93EB6C634496
:100C40000F930BF0E1FE0400182218340AA9F0609B
:100C5000746104F0A7FE00220023109211931292F7
:100C600013930022884B18201492159334610BF0D3
:100C7000CBFE04001822183410A9B061346204F0CD
:100C800091FE002324202B656B65AB65F4610BF0AE
:100C9000BBFE030024330193AB650023040037003F
:100CA0009B46039028653B68002099464A467B682E
:100CB00002939B1A5A4698462260DB106260A2603B
:100CC00007D080225205934200D30AE140460BF040
:100CD0009BFE8246C2445346A360029B2060994516
:100CE00003D04246494604F05DFE53466360019BD3
:100CF0000C340C37A342D6D16C6532AC0C3C206866
:100D0000002800D1E2E00BF04FF8B442F6D12B6A94
:100D10006C6A0022169317940023182018921993D6
:100D20001A921B930BF070FE04001822183416A9B7
:100D30002990B46004F036FEA86AE96A0022002314
:100D40001E901F9118201C921D9320922193746075
:100D50000BF05AFE0400182218341CA97461F060CC
:100D600004F020FE002300221820229223932492D4
:100D7000259334612B6B6C6B269327940BF044FE08
:100D800004001822183422A9B061346204F00AFE6B
:100D900000232420EB652B666B66F4610BF034FEB8
:100DA0000300243301936B660023040037009B4645
:100DB0000390E8653B68002099464A467B680293A9
:100DC0009B1A5A4698462260DB106260A26007D0E8
:100DD00080225205934200D381E040460BF014FE7E
:100DE0008246C2445346A360029B2060994503D0CB
:100DF0004246494604F0D6FD53466360019B0C34DD
:100E00000C37A342D6D12C6632AC0C3C20680028AB
:100E100060D00AF0C9FFB442F7D100231820AB66B6
:100E2000EB662B670BF0F0FD040018341822204904
:100E3000A8662C6704F0B6FD00231820EC666B67EB
:100E4000AB67EB670BF0E0FD04001834182219497A
:100E50006867EC6704F0A6FD2800AC6733B02BE0B0
:100E600096484740E3C798BBC0450410D8450410D6
:100E7000F0450410084604101AFCFD62B664553FA4
:100E8000EEF6720247E0EF3F0000F03FEA3CAE367C
:100E900094B4EF3FD8664217FDF6EF3FDE2D1C4AB3
:100EA000E5D48BBFE5D48B3FDDE10212452FACBF0B
:100EB00020460410384604103CBC90469946A24691
:100EC000AB46F0BDB44200D063E66BE6B44200D05E
:100ED00014E71CE7B44298D19FE71DF0B5FF1DF061
:100EE000B3FF1DF0B1FF28005030FFF779FB6869B0
:100EF00000281BD128000830FFF772FB0AF0FEFF24
:100F0000E86D002801D00AF04FFF32AC0C3C20689D
:100F1000002801D00AF048FFB442F7D1E3E70BF014
:100F2000C3F8039BA34204D10BF036FD0AF03CFF4B
:100F3000E0E71868002801D00AF036FF039B0C3365
:100F40000393EEE70BF0EAF8A868002801D00AF056
:100F50002BFF32AC0C3C2068002801D00AF024FFA3
:100F6000B442CBD0F6E7EFE70BF09EF8039B9C4230
:100F700029D10BF011FD286D002801D00AF014FFD3
:100F800032AC0C3C2068002801D00AF00DFFB442BE
:100F9000F7D1ACE7ABE7686F002801D00AF004FF97
:100FA000A86E002801D00AF0FFFE28005C30FFF791
:100FB00017FB98E7F4E79AE70BF076F8039B9C425F
:100FC0000AD10BF0E9FC1868002801D00AF0ECFE09
:100FD000039B0C330393C9E71868002801D00AF07B
:100FE000E3FE039B0C330393E8E70BF097F8C2E7AB
:100FF0000BF094F884E7C046802370B55B050400CD
:10100000994215D2002303604360836000290DD00C
:10101000CD0028000BF0F8FC46192A0000212060C2
:10102000A66004F0B9FC2000666070BD0026FAE7F7
:1010300001481DF041FFC0468845041000B5114825
:1010400083B00BF0C5FF1048FFF736FD0F48FFF7E0
:10105000E1FA0F48FFF7D6FB01AA03210D48FFF77D
:10106000CBFF01AA03210C48FFF7C6FF01AA032109
:101070000A48FFF7C1FF00F06DFD094B1860596089
:1010800003B000BD64370020501F0020E81F00207F
:10109000F8370020B038002070370020D838002002
:1010A00088200020094A830094464022634410B5FA
:1010B0001C68C0006240C0241440802252011343C7
:1010C0001C60034B9C466044416010BD04C001405D
:1010D000004001400A4B80009C46042360440029E4
:1010E00001D00C230821002A00D10B0002685340D4
:1010F0000C221A4080235B01184302607047C046EF
:1011000004C00140F8B5EFF3108772B60E4E336895
:10111000002BFCD0BFF35F8FCB08C4180725A44673
:10112000C45C01230D40AB4018002040234208D18D
:10113000624623431370BFF35F8F306087F31088DC
:10114000F8BD100001F042F92C0100D0024B1868E4
:101150008007C00F7047C04600C006400021044B06
:10116000044ABFF35F8F02C39342FAD17047C0466F
:10117000000100D0800100D0044A1078431CDBB28B
:10118000172B00D9102313707047C0467812002027
:1011900001238340002904D0034A1360034A1360EB
:1011A0007047034A1360FBE780E200E000E100E0E3
:1011B00080E100E0024B10309B688000C05870470F
:1011C00000ED00E070B50D00EFF3108672B60F4A27
:1011D0001368002BFCD0BFF35F8F0D4B10309B6862
:1011E00084001B590B4A934203D09D4201D001F069
:1011F00005F9074B9B681D51BFF35F8FBFF35F8FEE
:101200000022024B1A6086F3108870BD240100D0C2
:1012100000ED00E0CD010010F0B5DE4657464E4629
:101220004546E0B50C0083B0EFF3108A72B65A4A17
:101230001368002BFCD0BFF35F8F102291468144CE
:101240004A46564B96009B689D59554B98469D4281
:1012500005D0A54216D0534FEB1B2F2B14D94F4B63
:101260009B689D51BFF35F8FBFF35F8F00224A4B96
:101270001A608AF3108803B03CBC90469946A24697
:10128000AB46F0BD1D00EAE7012383409B465A466A
:10129000454B1B681A4000925A46444B1A60BFF3F4
:1012A0005F8FFEF7E0FF0190002803D0814501D059
:1012B00001F0A4F801232A009A4393689C4208D1C4
:1012C00060E04B005B189B00FB189968A14211D0AD
:1012D0001A00062151560029F3DA009B002B05D095
:1012E0005A46334B1A60304B1A60B8E75A462F4BB8
:1012F0001A60B4E706215956002922DB4A0050182B
:1013000080003C188046A0689860E079D87106207B
:1013100020569871A0797F2824D8A488F81A6405EB
:10132000241544440019E0240005400D2402204304
:10133000988052181F4B9200BF181A781970BA7112
:10134000CBE70199002910D1FF3191711A499180A1
:1013500018490A789A71194ADB1B5B415A43120DEE
:101360000A70BAE7BD200002E2E7154A1549D21A11
:10137000083A5002400D01439980134952080A432C
:10138000DA80AAE70621515613000029B6DA019A3D
:10139000002AEAD14546DBE7240100D000ED00E059
:1013A000CD0100107C12002000E100E080E100E0AF
:1013B00080E200E01139002000BDFFFFAAAA000072
:1013C000B612002000F0FFFF00F8FFFFF8B501257E
:1013D00004000543FEF747FF0300EFF3108672B6E3
:1013E00021490A68002AFCD0BFF35F8F1F4A200002
:1013F0001F49801A40414143090D1E489B008768E0
:1014000049B2FF58AF421CD00623D3568B421CD0A2
:101410001223D3568B4222D01E23D3568B4220D088
:101420002A23D35603208B4210D0134B1A781970FD
:10143000A271BFF35F8F00220B4B1A6086F31088F6
:10144000F8BD82680D48D050EFE7002043001B181C
:101450009B00D218FF239371094B9380E5E701208D
:10146000F4E70220F2E7C046240100D07C120020FD
:10147000AAAA000000ED00E011390020CD01001003
:1014800000BDFFFF054B064A1360064A1360536018
:101490009360D36013615361936170478080808053
:1014A00000E400E004E400E0024B9C466144890053
:1014B000016070474000003483680B4810B58446D3
:1014C00061446244090112019A18591854684B6822
:1014D00001209C4201D802D00020C0B210BD126889
:1014E0000B689A42F9D8F7E7FFFFFF0F10B5080025
:1014F0000B690C009847002802D02068616810BD75
:10150000E06000210020FAE7F8B5574645464E4610
:10151000DE46E0B599460CAB19780DAB1B7805009B
:1015200090469A460768002912D1BE7B002E45D00E
:1015300074003B68A419033C1B195A783100BA7334
:10154000002A00D1FA7300229A705A701A7003E0D0
:101550000E004C006418033C2C4B00229C46AB68E8
:1015600061449C464346090161440B604B464B6015
:101570000A9B8B600B9BCB603B681B199A705A705F
:101580001A707B7B9B46002B2CD032005946B868E2
:101590007B6898473A68002817D05B4658465B003E
:1015A0005B441419033BA070D118D35C002B00D00E
:1015B00063705B460E707B73B34514D030003CBC47
:1015C00090469946A246AB46F8BD5B465B005B443D
:1015D000033BD3189E701119125D002A00D05A7077
:1015E0005B460B707E7342464B46287D00F02CFB19
:1015F000041E06D05346002B03D13100286800F0AA
:1016000069FD0E9B002BD9D01C70D7E7FFFFFF0FA1
:10161000F0B5DE464E46574645460023E0B58DB050
:101620000A936B4B8200D3580B90994600239B463C
:101630004B46079300F08EFA079C06000F00626885
:10164000EFF3108572B61368002BFCD022000794CC
:10165000BFF35F8F2468637B9946002B67D0926845
:101660005C4B90464B441B01984443461A685B68A8
:1016700010001900801BB94100295FDD0B9800F0B4
:10168000E3FA00230026984600279A46079C6368E1
:10169000BFF35F8F5A461A6085F310885346002BBC
:1016A00008D10028C6D10DB03CBC90469946A24650
:1016B000AB46F0BD0A9B414618024B461843D04743
:1016C000089009916268EFF3108572B61368002BD9
:1016D000FCD00794BFF35F8F0899099A002A48DB72
:1016E000114303D0079B1B69002B5DD1079B1B682F
:1016F000DA7B002A07D051008A1819688C464946BF
:101700006244033A51704A46DA734B46079A013BEA
:10171000D168CA5C0132CA545B46079A13615368A8
:10172000BFF35F8F5A461A6085F3108882E7002363
:101730000026984600279A460020A7E7002901D1F5
:1017400000289BD10021200000F026FC43461E68A3
:101750005F689B68079A9A464346DB689846D36859
:101760004B44013B1B780A931B0203431361002087
:101770008CE72369002BB9D033003C005B1A9441FD
:101780001A002300A74219D89F421BD05946049142
:101790000121039149460291414601915146079822
:1017A0000091FFF7B1FEB7E700F0D4F9089A099B62
:1017B00006000F0092197B419942E5D9012252425D
:1017C000D317E3E79642E1D901225242D317DDE76E
:1017D000E4380020FFFFFF0F10B5124C6368002BA8
:1017E00004D00A211048FFF75FFE10BD23000F4A06
:1017F0001021206800F0EEFA032000F09FF903208A
:1018000000F094FA03200A4900F0D8F9FFF7B4FC7D
:10181000084B9C46032360442375074B800060609F
:10182000DC60DEE7C4120020F8380020B914001094
:101830001116001040000034E438002000487047C2
:10184000C4120020F0B54E464546DE465746E0B588
:1018500083B00E99060088461100194300D1F3E0C9
:10186000D817070057403C0007005F4001003D00CB
:10187000241A8D4141460C980A600D9A4B604A61CA
:101880008E60086100F066F902000B00A4185D414B
:101890002000290000900191AB4200D9E3E000D183
:1018A000DDE00023C3461F00B04643465B68EFF30C
:1018B000108972B61A68002AFCD0BFF35F8F4346C6
:1018C0001D68AC7B002C5FD066002B683619033E88
:1018D0009B195A78AA73002A00D1EA730020424665
:1018E0009870587018709268644B94460099019AE9
:1018F000E3181B01634419605A60614A9A605A46B2
:10190000DA602B689B199870587018706B7B9A4638
:10191000002B00D188E022001900A8686B68984766
:101920002A68002800D173E0534650465B005344B8
:101930009619033BB070D118D35C002B00D08CE01B
:1019400053460C706B73544500D16EE043464246DB
:10195000DB6852681B19013B1B78BFF35F8F0021C6
:10196000116089F31088002F1AD11B021C43012338
:10197000D8469A4643465046DC6003B03CBC90468D
:101980009946A246AB46F0BDD8465B68BFF35F8F71
:101990001C6089F31088002301249A466442E9E719
:1019A0005846036998478146002803D1BA46D8466D
:1019B0000024DFE75B461C685D6823002B4358D09A
:1019C000002D0FDA009A019B10001900001BA9419D
:1019D00004000D008B4210D8AB4212D04F46009449
:1019E000019562E700F0B6F806000F00A4197D41EA
:1019F000A94202D8F2D1A042F0D901246442E517ED
:101A0000ECE7009BA342E9D901246442E517E5E72E
:101A100053465B005344033BD3189C709119925D6D
:101A2000002A16D153460B706C734346187D009AFA
:101A3000019B00F009F9071E00D187E7434621000A
:101A4000186800F047FB81E70124002501220023EC
:101A500010E75A7053460B70E6E7737070E7009911
:101A60008A4200D81DE701235B42DC1700930194F2
:101A700017E7D846CA4600247CE7C046FFFFFF0FA1
:101A8000ED140010F0B5D6464F464646C0B5EFF30C
:101A900005833F22134018001038EFF3108C72B604
:101AA000204D2A68002AFCD0BFF35F8F012211006D
:101AB00081401D4C884661631C4917000E788A4698
:101AC0003100C1400F400A4215D019498200646AB2
:101AD00051588C4219D3174BD25843469E43534614
:101AE0001E70BFF35F8F00232B608CF31088002AD9
:101AF00006D0904704E0BFF35F8F2F608CF310880F
:101B00001CBC90469946A246F0BD0B4A9B009046ED
:101B100043441A681A60BFF35F8F00232B608CF375
:101B20001088EDE7280100D0004005401239002060
:101B3000FC3800207C370020D03F054010B5010064
:101B4000024A0348FFF7DEFA10BDC0467046041093
:101B500010390020034B596A0A00986A596A8A4270
:101B6000FAD170470040054070B504000D00124ADC
:101B7000536A1900966A536A8B42FAD130001900F1
:101B800024184D41AB4211D80ED02B000A494A6AA5
:101B90009A42FCD307D1084A02E0516A994202D125
:101BA000916AA142F9D370BDA642EED90123012466
:101BB0006442E5175B42E9E70040054070B5040068
:101BC0000D00EFF3108672B61A4A1368002BFCD092
:101BD000BFF35F8F002D1BD02000FFF7EBFA1649F3
:101BE00081420AD02000FFF7EDFA01212000FFF723
:101BF000CFFA0123A340114A1360114BA400E55012
:101C0000BFF35F8F00220B4B1A6086F3108870BD04
:101C10000B4BA200D5500122A2400A4920000B78AC
:101C200093430B700449FFF7F7FA00212000FFF7F8
:101C3000AFFAE5E7280100D0851A001038600540AA
:101C40007C37002012390020F0B54F46D646464674
:101C5000C0B50700304C616A0D00A66A616AA942EE
:101C6000FAD18B4208D805D001201CBC9046994679
:101C7000A246F0BDB242F7D9EFF3108972B62748F9
:101C800001680029FCD0BFF35F8F01252449BD40C6
:101C90008C460978204C0E002E438846F1B28A46C5
:101CA000614650460870391D1E48890065630A5117
:101CB000B9000B50216A0020294219D0616A08003E
:101CC000A66A616A8142FAD18B4219D801D1B24227
:101CD00016D8C2451DD0104B1F201D625D63012325
:101CE0000740BB40104A1E381360634642461A70D4
:101CF000BFF35F8F0022094B1A6089F31088B4E7A5
:101D00000020BFF35F8F0022044B1A6089F3108814
:101D1000ABE70120ECE7C04600400540280100D0B9
:101D200012390020FC38002080E200E010B5EFF30B
:101D3000108472B60A490B68002BFCD0BFF35F8F8A
:101D400001238340074A0848136202789A430270CD
:101D5000BFF35F8F00230B6084F3108810BDC04673
:101D6000280100D0004005401239002070B5050060
:101D70000E001400002924D0002A24D080686B684B
:101D80009847296800280ED063001B197200033B96
:101D90009219CB18033A9E7088188A5C002A14D1D5
:101DA000047030000EE073009B196200033B1219AF
:101DB000CB18033A9C7088188A5C002A00D05A70AD
:101DC0000670200070BD0800FCE75A7004703000F7
:101DD000F8E7C04630B583600023CCB243730133CB
:101DE000047342608373C4730D000068012C06D92C
:101DF000421C0133DBB2137003329C42F9D1FF2144
:101E000029404B005918002340180338437030BD57
:101E1000F8B5CE46474606000C0080B5002907D02D
:101E20004D0003686D18033D5A195778002F04D1EF
:101E300020000CBC90469946F8BD7900C9190339B9
:101E40008846434459788946002159705170736817
:101E50003A002100806898473368002814D0424631
:101E60009A18947059195B5D002B00D053700F7055
:101E7000270049463000FFF7CBFF39000200300051
:101E8000FFF774FF0400D3E7424641465D19AF7087
:101E90009A185B5C002B00D06B701470E9E7C046A9
:101EA000F0B557464546DE464E46E0B50D006B00A0
:101EB00001685B19DF1E0400C85D83B00192CA1976
:101EC00000284CD043001B18033BCB185E78B44667
:101ED000002E16D1019E002E3ED0E67B002E04D0AF
:101EE00073009B19CB18033B5D70E57300282FD15D
:101EF0000023537003B03CBC90469946A246AB46C3
:101F0000F0BD72006244033A89184A789046002274
:101F10004A7091465A70010032002000FFF726FFF8
:101F200043468246002B07D05B0021684344033BB5
:101F3000CB185A78002A16D1424651462000FFF7A6
:101F400015FF2168019BCA19002BC6D10028CFD0EC
:101F500043001B18033BCB1800219970C8E7019B75
:101F6000002BBAD1C4E7500080180338091848780C
:101F7000834648464870587041462000FFF7F6FEF9
:101F8000594680462000FFF743FF414602002000EB
:101F9000FFF7ECFE8046CFE7F0B54E464546DE46FD
:101FA0005746E0B5467B040075000068AD19033D57
:101FB00083B00191415D421900294ED04B005B185E
:101FC000033BC3185F78BC46002F18D1019D002D3C
:101FD00040D0E57B002D04D06B005B19C318033B98
:101FE0005E70E673002931D10023300053706173B5
:101FF00003B03CBC90469946A246AB46F0BD7A0081
:102000006244033A80184278934600224270914617
:102010005A7020003A00FFF7A9FE5B468046002B6D
:1020200007D05B0021685B44033BCB185A78002A39
:1020300017D15A4641462000FFF798FE019B010048
:1020400020684219002BC4D10029CDD04B005B1869
:10205000033BC31800209870C6E7019B002BB8D142
:10206000C2E750008018033809184878824648466D
:102070004870587059462000FFF778FE5346834653
:10208000002B07D05B0021685344033BCB185A78E0
:10209000002A06D1594652462000FFF767FE8346C4
:1020A000C7E7500080180338091848464F78487031
:1020B000587051462000FFF759FE39008146200034
:1020C000FFF7A6FE494602002000FFF74FFE8246BA
:1020D000E0E7C04670B5040000292CD0437B8B425A
:1020E0002ED0056848004018033828188278002A46
:1020F00021D053009B18033BEA5CEE188A4202D1C0
:102100001BE0002A08D053009B18033BEB185A78B9
:102110008A42F6D142785A700023012283704370BC
:102120002000FFF7BDFE617B02002000FFF71EFECE
:102130006073012000E0002070BD43783370EBE74E
:1021400001221900FFF7ACFE60730120F4E7C046DE
:1021500010B50400FFF710F801002000FFF7A4F904
:10216000FF232371BFF35F8F10BDC04610B504007D
:10217000FFF702F801002000FFF796F9FF23A38084
:10218000BFF35F8F10BDC046F8B5040006200D00F8
:1021900000F098FA002845D02B4B2C49E3185A42FE
:1021A00053418022D20394465B421340284A634441
:1021B0001360284A136018008A689043FBD1224BB1
:1021C0008021E3185A425341234A5B00490006200C
:1021D000995200F077FA2900C00001F0C7FEC30948
:1021E00021D140270122260080256262A3620023BC
:1021F0002C36AD0135432B60062000F063FA390020
:10220000800001F0B3FE6023E26A53406E221A4060
:1022100080235B0133431A60104B236310232B6030
:102220000D3BA364F8BD0E4A934203D900230D4F22
:102230000D4AD8E77F221040013040089F011A0064
:102240003F180300CFE7C0460080FCBF00C000403D
:1022500000E0004000F000401439002001030000BD
:10226000FEFF0000C0FF3F00FFFF00002C4B2D4A87
:1022700070B51A602C4A2D4B2D491A6010008B68DE
:102280009843FBD12B4C2C4B9C4209D2013B1D1B8C
:10229000AD080135AD002D1908CC9847AC42FBD1F3
:1022A00000F0B2F8254A214B1A60214A9368DB01FD
:1022B0008033FBD14022224B224C234D9A675A6730
:1022C0001A67DA66AC4208D223682000002B21D0BE
:1022D0000834FFF74BFFAC42F6D31C4C1C4DA168F1
:1022E000C022280003F05EFBA560FEF737FFFFF772
:1022F000C9F8FFF771FA174C174B9C4209D2013B02
:102300001D1BAD080135AD002D1908CC9847A5421D
:10231000FBD170BD0834FFF71BFFAC42D4D3DCE720
:1023200000E00040BFCDFBFEFE7F3C0000F000401F
:1023300000C00040E01D0020F01D0020FFFFFF0155
:1023400000F00140D81D0020E01D002000ED00E05D
:1023500000000020F01D0020141E002000BEFDE73C
:10236000094A03001068002805D00849C3188B42A9
:1023700007D81360704706480449C31810608B42A1
:10238000F7D901204042F5E7BC38002000000420C6
:102390001C3B002000BEFDE710B50C0082B0190008
:1023A000002A09D0064B0192009302002300054841
:1023B00001F046FD00BEFDE7034B1A00F3E7C046FF
:1023C00094460410A4460410047C04100FB400B515
:1023D000084883B003F042FC049B002B07D005A9FA
:1023E0001800019101F04CFD034803F037FC00BEDA
:1023F000FDE7C046D4460410CC4A041010B501488D
:10240000FFF7E4FFE446041030B50C2083B000F081
:10241000B3F9FEF79BFE00280ED0944B944A1A6045
:102420005A609A60DA601A615A619A61DA611A62D6
:10243000904A5A6203B030BD8F4CA06700F0A4F9F7
:1024400001228E4B1A60636C012BFCD103228C4B52
:102450001A60894A936B012BFCD101330121894A0F
:1024600089480093043300F033F90523874A009329
:102470000121874800F02CF9864B5A68FF2A02D8C0
:10248000802252005A608022784C7D4B21691201D3
:10249000804D1A60002905D0606901F067FD0130A8
:1024A0000138FDD1E0217B4B02201A6811408022C7
:1024B00052012A431160196848400321014011600C
:1024C00004219A681142FCD08022802192012A4383
:1024D00009011160802252005A606F4B23616F4BDB
:1024E0005968FF2900D85A6003226C48634B0121C8
:1024F0001A60020093681942FCD0E02513681D4061
:1025000080235B0103431D6012684A400321114090
:1025100019600221614A93681942FCD0802380210E
:102520009B0103430901196080215D4B4900516003
:1025300063615C4B5A68FF2A00D8596080225A4B6D
:10254000E1691201574D1A60002905D0606901F058
:102550000DFD01300138FDD1E02252490B681A40CF
:1025600080235B012B431A60802380229B012B4335
:1025700012011A6080223E4B52004A60E3614B4BCD
:102580005968FF2900D85A608022494B216A1201FC
:10259000464D1A60002905D0606901F0E7FC013062
:1025A0000138FDD1E02241490B681A4080235B01CC
:1025B0002B431A60802380229B012B4312011A6057
:1025C000802380225B004B60294BD2022362394B6F
:1025D0005968914200D25A608022374B616A1201D9
:1025E000344D1A60002905D0606901F0BFFC01304C
:1025F0000138FDD1E0222F490B681A4080235B018E
:102600002B431A60802380229B012B4312011A6006
:102610008023DB024B60174B6362284B5A68FF2A0A
:1026200002D8802252005A608022254BA1691201F3
:10263000224D1A60002905D0606901F097FC013035
:102640000138FDD1E0221D490B681A4080235B014F
:102650002B431A60802380229B012B4312011A60B6
:1026600080235B004B600E4BA361E3E68C370020B8
:10267000006CDC021BB70000008000403CB0004052
:1026800030B00040002F685900800240008C86471F
:1026900000C0024030800040001BB7003C8000407A
:1026A000405973075480004054B00040608000409F
:1026B00060B000406C8000406CB00040488000403A
:1026C00048B00040014B8000C05870478C37002054
:1026D000F8B504000C2017001D000E0001F046FCA8
:1026E0004101091A8B01591AC900091889013800DA
:1026F00001F03CFC069A2B04120313432268002AC3
:1027000021DB194AA21851424A41802149018C46D5
:1027100052420A40154962440A6015490A60154947
:1027200017008D68AF43FBD1C021221D89011143E1
:1027300021222660A0600A602268002AFCDAE36099
:1027400008230B60F8BD3F2221680A40B242D8D16D
:10275000A2681205120D8242D3D1EE21E268C902AD
:102760000A409A42CDD1EDE70040FDBF00E00040B5
:1027700000F0004000C000408023024A9B00034359
:10278000D362704700800540AA23064A1B011360EC
:102790002F230549D360054B19605368002BFCDAE1
:1027A0007047C0460040024000B0FA00006002409E
:1027B0009A4200D2885470477047C046F8B55746D1
:1027C0004E46DE464546E0B51F000A9B05009B4687
:1027D0000D9B0E00914692469B0718D10B9B0C9ABD
:1027E000934214D213000B9AB8469B1A4B444C46A2
:1027F0000F0006001D00220043460134390020204E
:10280000B047AC42F7D1AA4635003E0047460B9B85
:10281000002B38D09A441C00D04653461A1B5B4606
:10282000013C185D31003B00A847002CF5D10D9B01
:102830009B0721D543464A469C1A0C9BA3421BD9B1
:102840003A009A464F469146E2194B463100202005
:102850000134A8475445F7D343460C99DB1B013399
:10286000B9460022994203D343464A1E4A44D21A2B
:10287000434690460133984440463CBC90469946B6
:10288000A246AB46F8BDD046D1E7C046F0B54F46AC
:102890004646D646C0B584B098460EAB1B78129F0C
:1028A000994694460D9C109B119EBA0725D4002E84
:1028B00069D19C4200D3C2E001223A4092461F2CCB
:1028C00000D9BBE00C9A551E302201E0202C03D029
:1028D00001342A55A342F9D85246002A0DD0B442F9
:1028E0000BD21F2C62D80C9A551E302201E0202CEE
:1028F0005CD001342A55B442F9D1FA0635D57A05AF
:102900005DD4002C57D10F9B102B00D17CE00F9B86
:10291000022B00D18DE030230C9A012413704B461A
:10292000002B27D02D230C9A135501340C9B6246A3
:1029300000930397434602960194FFF73FFF04B0CC
:102940001CBC90469946A246F0BDBB0663D4202C21
:10295000ECD00C9B1A19013478231370202CE5D08D
:1029600030220C9B1B191A700134202CDED04B46F0
:10297000002BD7D17B0735D43B07D7D520230C9A22
:1029800013550134D2E7012215003D40AA463A42D0
:1029900020D04A46002A2AD10C323A4227D19C4202
:1029A0009DD21F2C00D88DE7202E19D92024FA069D
:1029B000BCD57A0503D4A3421BD0A64219D00F9BE5
:1029C000102BC2D0022BC9D1202CAFD00C9B1B19CD
:1029D000013440E09C4200D38FE71F2C00D871E700
:1029E00020248AE72B230C9A135501349EE7013EDD
:1029F000D5E7631E012C00D185E70F9A102A20D05D
:102A0000022A25D01C00ABE7BB060DD478230C9A14
:102A100001241370A4E7202C00D187E758220C9BD7
:102A20001B191A70013499E758230C9A012413706A
:102A300096E70C9A60330124137091E72024002656
:102A40005BE7023CBA06E9D40C9A12191C0083E732
:102A50000C9A9246534462221A707FE710B5002800
:102A600000D110BD03F0A8F8FBE7C0460B0010B57D
:102A7000002802D049681B68984710BDF0B5DE46B3
:102A8000574645464E46E0B59BB09B46249B0A9070
:102A90009846259B0B910C924046424619009A4657
:102AA00001F049FD002800D0E8E0012240465146EF
:102AB0007F4B524201F03AFD002800D0DEE00122B7
:102AC000404651467B4B524201F01AFD002800D08F
:102AD000D4E0002200234046514601F011FD0028B9
:102AE00000D0CAE15346C14609938023289ADB00EF
:102AF0001A400E92289A1A4201D1062326934C4678
:102B0000099B234300D0D9E0289B002600271B0502
:102B100000D4AEE100230D93269B19000D9B994232
:102B200000DCB0E1C81A431E26938023289ADB00FC
:102B30001A430023002528920D93279B0024AB42C3
:102B400000D95C1B0223289A1A400E92289A13423D
:102B500003D06B426B415B421C400D9B002B07D0A6
:102B60004846099932003B0001F061FC8146099119
:102B7000002200234046514601F0C2FC002805D047
:102B8000802000068446099961440991289A4A4B9D
:102B90000A9E13404A460493269B0B990293099B75
:102BA00003940092019330005B460C9A884600F033
:102BB000A1F90400002D72D0289B220098061F2343
:102BC000C017984341465B466530B0470D9B671C74
:102BD000DA179C18DB0F98466B1E99460025544067
:102BE00001E0202D13D00AAA94461F23200063443D
:102BF0000A2101355E1901F0B9F930313170200038
:102C00000A2101F0B3F926000400092EE9D80523B2
:102C100006934B460593002304930A3303934346DC
:102C20003A000A9E0B9F029312AB009339005B4659
:102C300030000195FFF72AFE0E9B0400002B2ED0DA
:102C40000C9B279AC51AAA4229D93C00814698466E
:102C50001700434621005A1920205B460135B04732
:102C6000AF42F6D84C460C992798631A01330022DC
:102C7000984200D30AE10134141910E0289B42461F
:102C80000493279B0B990393269B0A980293534620
:102C9000009201935B460C9A00F02CF9040020008E
:102CA0001BB03CBC90469946A246AB46F0BDC04620
:102CB000FFFFEF7FFFFFEFFFFFF7FFFF764B099D61
:102CC0009C466800400D604401F048FC734A744B18
:102CD00001F0CBFB734A744B01F0A0FB2B03734A4A
:102CE0001B0B1A4306000F00714B110048460022CF
:102CF000099501F08AFB6F4A6F4B01F0B6FB0200A9
:102D00000B003000390001F089FB01F03FFC0D9011
:102D100001F024FC694A6A4B04000D0001F0A5FB98
:102D20000022684B01F07AFB01F030FC664A060095
:102D3000664B2000290001F098FB040030000D00D4
:102D40000F9601F00BFC624A624B01F08EFB020011
:102D50000B002000290001F058FB02000B000600C8
:102D60000F0001F082FB320004000D003B00300038
:102D7000390001F053FB002210901191564B2000B6
:102D8000290001F054FB0022544B01F047FB0200E4
:102D90000B002000290001F04AFB0022504B01F0FB
:102DA0003DFB02000B002000290001F040FB0D005C
:102DB000802132003B000400C905002001F025FB02
:102DC00002000B002000290001F028FB02000B008C
:102DD0001098119901F02BFB0022344B01F01EFBDF
:102DE000404A0F9B9446634400221B0501F03DFBC3
:102DF00006000F0002000B004846099901F080FB15
:102E000000280AD00D9B3000013B39000D930022B1
:102E1000324B01F00CFB06000F00C6250D99330064
:102E200063318D42AD4128996D420435090500D4C6
:102E300083E63B4300D16FE6099C484621002A4ABD
:102E40002A4B01F06BFB002808D0002248462100E5
:102E5000274B01F055FB002800D05DE6269B002B98
:102E600000D16AE60E9B5A1E9341269AD31A2693E6
:102E700063E6002304250D935FE680231B0653447D
:102E8000C146099331E6002326934EE60A008446A4
:102E9000013A6244121BEEE601FCFFFFFB799F50F2
:102EA0001344D33FB3C8608B288AC63F0000F03F6D
:102EB0000000F83F61436F63A787D23F71A3790990
:102EC0004F930A400000E03F1655B5BBB16B02407E
:102ED000EF39FAFE422EE63F00002C40000024406D
:102EE00000001840FF0300002D431CEBE2361A3FA0
:102EF00080842E41F0B54E46DE4657464546E0B545
:102F000097B09946209E219F229B83469846079121
:102F10000C923B0032003000390001F00CFB00281D
:102F200000D0C1E1012230003900CA4B524201F009
:102F3000E7FA002800D0E0E0012230003900C64B5B
:102F4000524201F0F3FA002800D0B6E0002230002F
:102F50003900C24B01F0EAFA002800D098E00022C4
:102F600030003900BE4B01F0CBFA002800D08FE0D2
:102F7000002200233000390001F0C2FA002800D0FE
:102F8000B0E000230D93249B5B0501D406239846F3
:102F900008AB9C461722002430234146624404E0DB
:102FA000013413550139202C01D00929F8D888465D
:102FB0003000390001F0EAFA4346DA00A94B050077
:102FC0009B181A685B680892099301F0C7FA02001F
:102FD0000B003000390001F018FA089A099B01F043
:102FE00044FA0A900B9101F0F5FA824601F0B2FA28
:102FF00002000B000A980B9901F007FA00229A4B85
:103000000A900B9101F092FA002800D1C0E0012350
:103010009C46E244504601F09DFA02000B000898DD
:10302000099901F073FA002802D000239A4601356D
:103030004346002B69D008AB17269C46089566448A
:10304000554614E001235B4243440A2128009A4676
:1030500000F08CFF013430313719397028000A2113
:1030600000F084FF092D00D8D5E0D0460500202CC3
:10307000E8D10323249A1340012B00D100E10EABC9
:103080009846249B01940393239B029343461EE09E
:10309000249B58460493239B009601970393434631
:1030A0000C9A029307994B46FFF7E8FC17B03CBC1B
:1030B00090469946A246AB46F0BD249B5B070ED4D2
:1030C00003226A4B24990192039123990291009360
:1030D00058464B460C9A0799FFF770FBE6E7042227
:1030E000634BEFE73B0032000020002101F08DF937
:1030F000012306000F000D9345E7249B0393239BB8
:103100000293042301935B4BE1E7280001F026FAC8
:1031100002000B003000390001F077F9524B002219
:1031200006000F0001F0ECF90EAB984600280AD11A
:103130000022300039004C4B01F0F8F9002802D190
:10314000EB0700D50135202C32D008AA944617236E
:10315000280063440A2101341E1900F0DFFE3031DB
:10316000280031700A2100F0D9FE051EEBD103239F
:10317000249A1340012B00D191E01F2C00D980E745
:103180000D9B002B3BD02D2342461355013478E78D
:1031900000220A980B99344B01F0B2F9002800D0B4
:1031A00046E75346002B67D101239C46E2443FE7A4
:1031B0000323249A1340012B00D062E7239B002BAA
:1031C00000D15EE70D9B002B03D1249A0C331342F0
:1031D00002D0239B013B2393239B9C42CDD208AB7F
:1031E0009C461722302362441F2C06D823990134B1
:1031F00013558C42C1D0202CF8D1202441E7249BC8
:103200005B0721D4249B1B0700D43AE720234246C6
:103210001355013435E75746089D202C37D022003E
:1032200030214046002F08D00132B154202A43D02B
:10323000D3431B191B18002BF6D10EAB98462E2337
:103240004146541C8B547EE72B23424613550134D0
:1032500017E7C046FFFFEFFFFFFFEF7F65CDCD41D2
:1032600065CDCDC1E84804100000E03FF0460410F1
:10327000F446041000470410DB0700D4D8E693E7B7
:10328000239B002B00D1FAE60EAB98469AE7032366
:10329000249A1340012B00D0F1E60EAB9846239BF5
:1032A000002B00D169E78DE7249B0393239B0293B6
:1032B00003230193064B0AE70323249A2024134097
:1032C000012B00D0DBE6239B2024002BDCD1D6E6AB
:1032D000FC460410F0B5DE464E4657464546E0B57E
:1032E0009FB01C00289B93460993CF4ACF4B894639
:1032F00008901A60002900D116E2002320789A462F
:10330000002800D118E226001D004C460AE02A00E1
:103310006F1C5B46089D2100A8473D0001363078B0
:1033200000287AD02528F2D110239A46083B9946E6
:10333000043B9846023B00219C46721C1078160004
:103340000300203BDBB2102B03D8B94F9B00FB5886
:103350009F460300303B092B3CD900230A932A28BF
:1033600000D171E0002398462E2847D00300683B27
:10337000DBB2122B1FD8AF4A9B00D3589F460123C4
:1033800001321943DAE7634601321943D6E743466F
:1033900001321943D2E7534601321943CEE74B4677
:1033A00001321943CAE770786C2800D1BFE280234C
:1033B0005B00194301360300253BDBB2532BA6D833
:1033C0009D4A9B00D3589F4680235B007078194329
:1033D0000136F0E700270300B800C01901364000AD
:1033E000C018337830381A00303A0700092AF3D968
:1033F0000A901800002398462E28B7D180237078B1
:10340000DB0019430300303B721C092B00D895E107
:103410002A2800D1A6E11600A8E7A146AA462C005A
:10342000D34503D801235B425B449A465B46524630
:1034300049460020089DA84720001FB03CBC90468C
:103440009946A246AB46F0BD099B40CB0A96002E9A
:1034500003DB50780993561C84E7283801437042F7
:103460000A9009935078561C7CE7782800D1D4E163
:10347000582800D168E26F2800D152E3622800D1B9
:10348000D8E110230A009A430B92692801D000F07A
:10349000A2FC0A230C934B0500D4D5E101230B9A1F
:1034A0009A430B92692800D1CEE1642800D1CBE188
:1034B0000B9A802311009B0019408A461A4200D0C3
:1034C00032E3802311005B00194089461A4201D083
:1034D00000F002FC13005B0600D510E30B9B1B06FB
:1034E00001D400F06EFC099B04CB1204120C92462E
:1034F00009935346002B00D064E30B9A103311005C
:1035000099430B91520500D45CE3002399460B9B31
:1035100006930A9B0593434604930C9B0393002355
:10352000DEE27078682800D107E280230136194373
:1035300041E780239B007078194301363BE746281A
:1035400000D174E10722099B0491073393430A9A3F
:1035500019000392424602920CC908980092019306
:1035600009912A005B462100FFF7C4FC01360500E3
:10357000D5E6099B1A0008CA9146002B00D105E147
:10358000212211438A460EA884461F2161440995D1
:1035900000220F27A4460D0002E0202A0CD00B00C9
:1035A0003C001C4020003730092C00D8073801327D
:1035B000A85419090F2BF0D86446099DF0E08B0739
:1035C00000D4D1E1099B2A0099466B1C98464B46D2
:1035D00001CB21009946089F5B46C0B2B8470A9BC1
:1035E0009C466544012B00D890E2B2465E464746B1
:1035F000A846089D3A003300013721002020A84743
:103600004745F7D1B3464B4656463D000993013630
:1036100085E62A006F1C5B46089D21002520A847EF
:1036200001363D007BE6C046D5320010D43800207C
:10363000084704104C47041098470410099B04CB1A
:10364000994643460992002B00D097E013789C4698
:10365000002B00D1B3E302235B425A1C099B924624
:1036600018000A9F0B92504402E0834200D169E1A6
:103670005A780133002AF8D1099A0A979B1A0B93BA
:1036800080230A00DB001A400C92194204D00B9BE5
:10369000434501D943460B9302231A000A400D9279
:1036A0000B4200D184E16046002823D00C9B002B04
:1036B00000D124E1A844C246099B57465B1B9846AB
:1036C000089BB2462A0026005C469B4609E0230080
:1036D0003100551CD8474346585D002800D13FE1D2
:1036E0002A009742F3D1A3463D00340056460D9B75
:1036F000002B69D00B9B0A99A846994264D98C4645
:103700006544ED1A089B47469A46B04626005C463B
:103710003A002300013731002020D047AF42F7D1D3
:10372000A346340046464FE0D24B2078089300234E
:103730009A46002800D0E6E5002471E643460600DC
:103740000A9F9800C01801324000801916780300C3
:1037500030003038303B0928F3D930009846160045
:103760000A9703E6099B023604CB9046D2434046B3
:10377000D2171040804609933078F7E513789C46BD
:10378000002B00D11AE34346013B66E710220800F4
:1037900090431132104382460022490500D4F2E6DC
:1037A000534606930823059343460493102303933B
:1037B0000023029316AB019200932A005B4621007E
:1037C0000898FFF763F805004B4601360993A6E514
:1037D000202302009A43472A04D180231B01194366
:1037E00002239843452801D1202319430722099B2E
:1037F0000491073393430A9A1900039242460292B6
:103800000CC908980092019309912A005B46210097
:10381000FFF734F90136050081E510230C930C23E2
:103820000A009A430B924B0500D43BE636E6202370
:10383000194387E602230C930B910B996428EED170
:103840000B9B5B0500D529E60B9A802311009B009A
:1038500019408A461A4200D0CEE0802311005B0056
:10386000194089461A4200D0DBE113005B0600D5FF
:103870001DE10B9B09991B0600D499E208C91BB2F4
:10388000D8171A18424092B209919246DA0F129252
:10389000002B09D1802310220B99DB000B409143B0
:1038A0000B91002B00D012E10B9A6123920600D5F8
:1038B00041230EA91F228C46DBB262440A3B5746C5
:1038C0001395A2464D460C9CB1460D9316000AE096
:1038D0003033DBB201357355A74200D21CE1202DF5
:1038E00000D119E107002100380000F03FFBCBB206
:1038F0000929EDD90D9A94466344DBB2EAE7099BA6
:103900005F465B1B98460A9BB3469A462600089C76
:103910002A003B003100A04743460135585D00288E
:10392000F6D1534634000A935E46BB46DFE6C02319
:103930009B00B078194302363DE5C023B0781943A7
:10394000023638E50A979BE60C230A009A431433A3
:103950001A4310230B920C934B0500D4A8E59DE568
:10396000A34634005646C2E60A9A012A00D82EE23F
:103970006B1E9F18089BB046994626005C462A009D
:103980002300013531002020C847BD42F7D1A346AE
:1039900034004646099B3A0001CB210098467D1C25
:1039A0005B46089FC0B2B847434601360993B6E468
:1039B0000B9A0A98531C904200D80AE243199B1AAA
:1039C0001F00089BB24626005C469B462A00230047
:1039D000013531002020D847BD42F7D10A9BA346CC
:1039E00001330B93099B34001B7856469C46604676
:1039F000002800D05AE6E7E60722099B07339343E5
:103A0000013294469C4462465F6809921A68FB172B
:103A10001093119310981199030053400E930B00CB
:103A20007B400F9394460E9A0F9B121A8B410E9275
:103A30000F93FB0F6246129300233A439A463DD000
:103A40000B9A6123920600D541230022DBB20EA916
:103A50000A3B8C4691460D9343461F3262441395B0
:103A600015964D460E9E0F9FA14690460C9C1493B2
:103A70000FE0C046B92700103032D2B243460135BC
:103A80005A55BA4500D17CE1202D00D17CE10600D9
:103A90000F00220000233000390000F0A9FAD2B252
:103AA000092AE9D90D9B9C466244D2B2E6E7FF237E
:103AB000099904C913401A000991E6E60B9A1033DC
:103AC000110099430B915205BAD5002399460B9BDF
:103AD00006930A9B0593434604930C9B0393129B06
:103AE00002934B46019316AB2A00009321005B46DC
:103AF0000898FEF7CBFE01360500FFF710FCFF2209
:103B0000099B02CB11408A460993F2E44B46454695
:103B100009930136FFF703FC4E465446A946139D10
:103B2000D5E708230C9387E60722099B07339343C5
:103B3000013294469C44624609921A685B68100000
:103B40009A4613005246134307D10B9A10331100C3
:103B500099430B91520500D5D7E40B9A6123920645
:103B600000D541230022DBB20EA90A3B8C469146C8
:103B70000D9343461F32624457461295A2464D4666
:103B80000400B14690460C9E13930DE03032D2B241
:103B9000434601355A550023BB4200D1FDE0202D9C
:103BA00000D1FDE004000F003200002320003900A6
:103BB00000F01EFAD2B2092AE8D90D9B9C46624455
:103BC000D2B2E5E70B9A6123920600D54123DBB21E
:103BD0000EA90A3B1F228C460D93230062445446D3
:103BE000129517004D469A46B1460C9E08E03033B8
:103BF000DBB201357B55B4420ED3202D0CD004002E
:103C00003100200000F0B2F9CBB20929EFD90D9AAA
:103C100094466344DBB2ECE74E465446A946129DF7
:103C200075E4099B1A0008CAD91713925A184A401A
:103C30009146DA0F1292002B08D1802310220B99A3
:103C4000DB000B4091430B91002B2BD10B9A61238E
:103C5000920600D541230EAA1F279446DBB20A3BE9
:103C60000D95674455460993A2464C46B1460C9EB5
:103C700008E03033DBB201357B55B4420ED3202D42
:103C80000CD004003100200000F070F9CBB20929FB
:103C9000EFD9099A94466344DBB2ECE74E465446AA
:103CA000AA460D9D0B9B2A0006930A9B21000593B3
:103CB000434604930C9B08980393129B013602938E
:103CC0005346019316AB00935B46FEF7DFFD139B53
:103CD00005000993FFF723FB099B04CB9146129340
:103CE000002A08D1802310220B99DB000B4091435E
:103CF0000B91002B2BD10B9A6123920600D5412307
:103D00000EAA1F279446DBB20A3B0D956744554621
:103D10000993A2464C46B1460C9E08E03033DBB214
:103D200001357B55B4420ED3202D0CD00400310058
:103D3000200000F01BF9CBB20929EFD9099A94466B
:103D40006344DBB2ECE74E465446AA460D9D0B9BFE
:103D50002A0006930A9B21000593434604930C9B7B
:103D600008980393002302935346019316AB0093E4
:103D70005B46FEF78BFD129B050009930136FFF7AA
:103D8000CEFAB44200D87FE6149B4C460E960F97AD
:103D9000A9469846159E139D99E6A64200D8FEE6D0
:103DA000139B4E469846A9465446129DFFF7AFFB1B
:103DB00008C9D8171A184240099166E500230B93E9
:103DC0005EE4099B04CB92460993FFF792FB2F0018
:103DD000E0E50B930BE6063B0C932EE50EB40122B7
:103DE00010B585B007AC08CC0100009452420448DD
:103DF0000394FFF76FFA05B010BC08BC03B0184776
:103E0000B127001000B583B0009313000A00010031
:103E10000248FFF75FFA03B000BDC046B1270010AB
:103E200000B585B00391012102900093034813006F
:103E30004A4202A9FFF74EFA05B000BD6D2A0010F4
:103E40000FB410B50C4984B006AA08CA0C680392D6
:103E5000002C0BD0009201220848524202A9A04730
:103E6000012004B010BC08BC04B01847180001F0D1
:103E7000F5FE0020F5E7C046D43800205D2A00108A
:103E800010B5094A0300146884B0002C08D0012240
:103E900000910648524203A9A047012004B010BD7A
:103EA00001F0DCFE0020F9E7D43800205D2A001084
:103EB00001480421014B1847F0120020E13E001098
:103EC000142310B50100188804331B88984710BDCF
:103ED000162310B50100188802331B88984710BDBF
:103EE000F0B5C64600B5002916D0142304000125FC
:103EF00098461827890046184346216818883B8849
:103F0000984701C4431E984140420540A642F3D160
:103F1000280004BC9046F0BD0125F9E7124A936FD2
:103F20009B0815D29066D166002905D0FFE7FFE710
:103F3000FFE7516F106F704704B580210906C21763
:103F40005140002800D0C84340F0C6FA002104BD0B
:103F5000F0B5146E556E576F166FFFF7E3FF1466DA
:103F6000556657671667F0BD000000D0114A936F81
:103F70009B0813D210665166002905D0FFE7FFE7C2
:103F8000FFE7516F106F704704B5002801D0002083
:103F9000C04340F0A1FA002104BDC046F0B5146E44
:103FA000556E576F166FFFF7E5FF14665566576736
:103FB0001667F0BD000000D094464E4A926F9208FA
:103FC000624601D230E0C046F0B54A4EB56F6D088A
:103FD000FCD3346E756E776F366F00F025F894461B
:103FE000444A14665566576716676246F0BDC04678
:103FF0009446404A926F9208624601D258E0C04609
:10400000F0B53C4EB56F6D08FCD3346E756E776FAE
:10401000366F00F04DF89446364A14665566576779
:1040200016676246F0BDC046002B24DB11D0002984
:104030003EDA00B5C943404200D1013100F038F802
:10404000C943404200D10131DB43524200D1013328
:1040500000BD002AEBD1002801D1002905D00020A5
:10406000C90FC90701D1C043410800B540F0FCF9B0
:104070000022002300BD00B500290ADBDB435242C9
:1040800000D1013300F014F8C943404200D101319E
:1040900000BDC943404200D10131DB43524200D14F
:1040A000013300F005F8DB43524200D1013300BD7B
:1040B000002923D1002B18D1002A0CD0BC460D4F6B
:1040C00038667A6600210023FFE7FFE7FFE77A6F93
:1040D000386F67467047002801D00748010000B5D7
:1040E00040F0C2F90022002300BD02000B000020B6
:1040F00000217047000000D0FFFFFFFF002B00D021
:10410000BFE0130C28D1002AE7D080B4114F3966E4
:104110007A66FFE7FFE730B4040C7B6F396F1B044E
:1041200023433B667A66FFE7FFE7FFE7C04684B2BA
:104130007B6F3D6F1B0423433B667A66FFE7FFE717
:10414000C04600232C042D0C7A6F386F001969418A
:10415000B0BC7047000000D0F0B594460025140EA6
:1041600001D112020835140F01D112010435940F48
:1041700001D192000235D40F01D152000135D40B88
:104180000134254F7C66254C3C660E0C93B2FFE74C
:10419000FFE7FFE73C6F6643360C7703BE46734389
:1041A000DF0B5B04C01AB941130C7343DB18C91A47
:1041B000CE086643360CB64493B273431F0F1B01FF
:1041C000C01AB941130C73431F0B1B05C01AB94128
:1041D000860D8F023E436643360C092D24DB520ABE
:1041E0007243801A7703460A6643360C16235B1B1C
:1041F000DE40DF40BF1964466643821B70460435CB
:1042000006330100D940A840C01900D30131A242B1
:1042100006D20023F0BD0000000000D0FFFFFFFF2A
:10422000121B0130F3D3F1E709277F1BFE406446E0
:10423000A2B27243801A00D20139220C7243130CCD
:104240001204821A99410B0070460435133701009D
:10425000F940A840801900D30131002B02D1A242BD
:104260000AD2F0BD013000D30131121BFAD2013B5A
:10427000F8D1A24200D2F0BD013000D30131121BAF
:10428000F7E7F0B51C0C00D080E00CB400251C0A48
:1042900004D11B02160E3343120208351C0B04D145
:1042A0001B01160F3343120104359C0B04D19B00F4
:1042B000960F334392000235DC0B02D192185B411A
:1042C00001351C00971864410134464F7C66464C0A
:1042D0003C660E0CFFE7FFE7FFE7C0463C6F664316
:1042E000360C7703BE4697B27743C01B00D2013924
:1042F000C01B00D201399FB27743C91BC91B170CE1
:1043000077437E04FF0B801BB941CE086643360C11
:104310000C2D33DBB644120B1F053A431B0B97B22F
:104320007743C01B00D201399FB27743C91B170CDA
:1043300077433E043F0C801BB941860D8F023E43FC
:10434000664329277F1BFE400C3D7746AF40BF19CF
:1043500030BCA2B2ABB272437343801A9941220CB3
:104360007243130C1204801A994102000B000137AA
:10437000001BA941F9D2781E0021F0BD0C277F1B3C
:10438000FE4077467F0BAF40FF19E0E700245D1C3D
:1043900007D0144F7D663966FFE7FFE7FFE7FFE7C9
:1043A0003C6F95B29EB265436643401BB141150C0C
:1043B0001E0C6543664336042F0C3E432D04401B00
:1043C000B141994204D202000B0020000021F0BD4F
:1043D00001D19042F7D3801A994101349942F2D326
:1043E000F6E70000000000D0FFFFFFFF44464D4607
:1043F00056465F46F0B47047F0BCA046A946B246A8
:10440000BB46704748404140484018B41B4B5B686E
:10441000FC46019308BD04DF734B001018B4174B22
:104420001B68FC46019308BD00DF7D4B00109446DD
:10443000134A926F920809D2624618B40F4BDB6898
:10444000FC46019308BD0CDF354E00100C4AF0B558
:10445000146E556E576F166F6246FFF7EEFF084AEF
:104460001466556657671667F0BD18B4034B9B6812
:10447000FC46019308BD08DFD94C00101839002014
:10448000000000D0FFB550404240504059404B40E2
:10449000594000E0FFB5154F4C00640D03D0BC42FD
:1044A00004D10C0314D80020090D09055C00640D2B
:1044B00003D0BC4204D11C030AD800221B0D1B05EB
:1044C00001264B4009D44B4003D58B4200D1824298
:1044D000FFBD9942FCD19042FFBD0B43DB18034363
:1044E0001343F5D0C9434918FFBD0000FF07000082
:1044F00000B5FFF7CFFF01D0002000BD012000BDB7
:1045000000B5FFF7C7FF804100BDC04600B5FFF70B
:10451000C1FF01D9002000BD012000BD00B5FFF79B
:10452000B1FF01D9002000BD012000BD00B5FFF79B
:10453000A9FF804100BD012040054A00121804D89F
:104540005A00121801D8002070470120704700203F
:10455000704700000021002805D17047C11748406E
:10456000401AFAD0C90713B5064B1B6898470CBC14
:10457000441CA2401005120B0349091B09051943ED
:10458000114310BDF43800201F04000010B54C008A
:10459000620D8023D218DB00D21A5B057E2A10DD63
:1045A0009E3A13DACC170903490819435242D14005
:1045B000640001341532202A05DAD04008436043F4
:1045C00010BD002010BD0846604310BDC80FC018C4
:1045D000013810BD18B4044B5B6AFC46019308BD5A
:1045E00024DF1152001000001839002018B4044BC9
:1045F0001B6EFC46019308BD60DF1F5300100000D6
:104600001839002018B4044BDB6DFC46019308BD3B
:104610005CDF1D530010000018390020C94211D37F
:1046200000B549004908002200F018F8002904D418
:10463000002240428A41114600BD80210906002027
:1046400000BD000018B4044BDB6EFC46019308BDAE
:104650006CDF1F52001000001839002018B4044B02
:104660009B6FFC46019308BD78DF3B5200100000B1
:104670001839002018B4044BDB6FFC46019308BDC9
:104680007CDFA952001000001839002018B4044B38
:104690009B69FC46019308BD18DF01500010000023
:1046A00018390020024A034B00B500F041FA00BD62
:1046B000182D4454FB2119408A0002D3920D092A77
:1046C00008DA18B4064BDB6BFC46019308BD3CDFEF
:1046D0005354001000B5FFF7E5FF04BC9646F0E721
:1046E000183900208A0002D3920D092A08DA18B47A
:1046F000064B1B6CFC46019308BD40DF6354001061
:1047000000B5FFF7CFFF04BC9646F0E7183900204C
:1047100018B4044B9B6DFC46019308BD58DF5155FE
:104720000010000018390020132370B51D78012DEA
:1047300015D010DD2748FFF7CBFB274C0100802266
:10474000200001F02FF9022D06D02448FFF7B8FB16
:10475000234B186070BD204C224AA264F5E72E005E
:104760001D4C204AA3085B421E401D422FD033003F
:1047700022602020B1006118801B0A604A608A60B4
:10478000CA600A614A618A61CA610A624A628A62CF
:10479000CA620A634A638A63CA630A644A648A64AF
:1047A000CA640A654A658A65CA650A664A668A668F
:1047B000CA660A674A674008102803D18A67CA6731
:1047C000A264C2E71E339B00E250A264BDE700234F
:1047D000CFE7C04653440000183900204C33000096
:1047E000F4380020414B0010F8B502000B00040023
:1047F0000D0000201249FFF708FE002206000F00FE
:104800000F4B20002900FFF709FE02000B003000CB
:104810003900FFF72AFE4B0006000A005B0D01D0AD
:1048200000290ADB11003000FFF730FF02000B0007
:1048300020002900FFF76CFFF8BD00200149FBE7CD
:104840000000F03F0000F07FF8B502000B0004000C
:104850000D0000201149FFF7D8FD002206000F00CF
:104860000E4B20002900FFF7D9FD02000B0030009D
:104870003900FFF7FAFD4B0006000A005B0D01D07E
:10488000002908DB11003000FFF700FF22002B0099
:10489000FFF73EFFF8BD00200149FBE70000F03FB5
:1048A0000000F07FF0B557464E464546DE46E0B57F
:1048B00087B002925A009A46530D9946109B4D00BC
:1048C00004006D0D002B01D000221A60954A95421C
:1048D00000D1AFE04B46002B00D1ABE0002D00D162
:1048E000ABE0914500D19DE0013B0393AB4200DD7D
:1048F00098E0CB0F0E039846330B9B4680235B0357
:104900009C465B46624613431F005346060018034D
:104910006346000B0343029A0193039B0092AB4250
:1049200056D04346002B00D1BBE033003C000027AB
:104930005E42A7414B46ED1A002D00DCC7E0012086
:10494000019B40421911FFF711FB002398464B468B
:1049500003935346AB46029004931BE032009A4007
:1049600015003300524693401C004B464846D91769
:10497000009A019B00F0F6FE4346524693404B449A
:1049800098465B4626002F009B1A361A8F419B469D
:10499000002B55DD5B46DA460C2B01DD0C239A46D5
:1049A000029ABB11534351461D22521A1341202231
:1049B00001335B10524299468B18CFD52023320029
:1049C0005B1ADA4013003A008A4015001D43C8E71D
:1049D000019B9F4205DC009A019B9F4222D1964297
:1049E00020D900980199434600184941002B00D076
:1049F00082E0039B361A8F4199460123984653461D
:104A0000002B02DA43465B429846109B002B01D0F4
:104A100042461A604B46444A30003900D21AFFF72A
:104A2000E5FD0400200007B03CBC90469946A24634
:104A3000AB46F0BD00243D49F4E700240021F1E736
:104A4000039B9946049B9A46009B019CBC4250DC08
:104A50004CD0009B019CF61AA741BC4259DC55D0B2
:104A6000009B019CF61AA74102239C46E0443200B9
:104A7000009801993B0092197B418B4209DC23D0BD
:104A800000998A42BBD1019A9342B8D14346DB07D1
:104A9000B5D5009B019CF61AA74101239C46E04432
:104AA000ADE74B46ED1A002D00DD48E7019BBB4208
:104AB000DDDC009B019CBC4201D1B342D7D8009BF6
:104AC000019CF61AA74124E08242E2D8D8E70023ED
:104AD0009846009B019CF6186741002F1DDAF618D6
:104AE000674102235B429C46E044C0E7009BB3421F
:104AF000AFD9002FEDDBBAE7039B801BB941994684
:104B000001235B4206000F00984678E7009BB34202
:104B1000A6D901239C46E044A9E701235B429C46B9
:104B2000E044A4E7FF070000330400000000F07F2A
:104B300010B5002482B00094FFF7B4FE02B010BD9F
:104B400007B5604601880A0A0230DF2AFAD1C9B2E5
:104B5000820804D3028840880004104300E0006803
:104B6000014A5050039007BD183900200FB403BC10
:104B70000CBCF0B50124E407634000E0F0B50C0D77
:104B8000CF0F661E3605891B640503D3C943404217
:104B900000D30131640D03D0661CF60A07D0E41B74
:104BA00000207F00791C89078912803C24031D0D99
:104BB000DF0F6E1E36059B1B6D0503D3DB43524290
:104BC00000D301336D0D03D06E1CF60A07D0ED1B28
:104BD00000227F007B1C9B079B12803D2D032F1B17
:104BE000661B58D4A446202E46DA20371400BC4059
:104BF0001D00BD40F24033412A4380185941CB0F7C
:104C000005D0C943C043002264425041514162462D
:104C10004D0D28D10D0D07D100281FD0241940417A
:104C20004941013A0D0DF9D0640006D3013000D39B
:104C30000131002C01D140084000013A0BD4941CF2
:104C4000E40A04D112051144DB071944F0BDD90769
:104C5000204B194300E0D9070020F0BD0029DDD129
:104C6000002CDBD1F0BD0132C6074008CD07284338
:104C70004908002EE1D0D9E73C2E29DA203E403702
:104C80001400BC4000D00124F24014431A00BB4081
:104C90001C43D317ACE7AC46202F08DA20360400BB
:104CA000B4400D00B540F84039412843A5E73C2FFA
:104CB0000CDA203F40360400B44000D00124F84014
:104CC00004430800B1400C43C117EAE71000190083
:104CD000002494E70000F07FF0B50C0D661E360549
:104CE000891BE60A6405640D02D0651CED0A04D038
:104CF000002001210905803C2403A4461C0D671EE9
:104D00003F05DB1BE70A6405640D02D0651CED0A54
:104D100004D0002201231B05803C24037740644417
:104D200097B484B296B27443070C7E43150C6F435C
:104D300080B26843361802D3012000043F183004C3
:104D4000350C00197D41844688B29AB250430C0C50
:104D500062431F0C7C438EB27E43921902D301261C
:104D60003604A4191604170C3618674101BC81B229
:104D70009AB25143040C62431B0C5C4380B258430B
:104D8000121802D30120000424181004130C401838
:104D900063412D185E410020474106BC88B293B2A2
:104DA00058430C0C6343120C544389B251435B18B3
:104DB00002D301210904641819041A0C091862416C
:104DC0006D1856410020474118BCF902720D11437D
:104DD000F0026A0D1043ED020A0D03D16D19404136
:104DE0004941013B124E9B1B7600B3420ED26D002F
:104DF00007D30130002671416646354301D1400892
:104E000040001B05C918E4072144F0BD0BDA01334B
:104E100006D1013004D101314F0D01D04908F2E72C
:104E2000E1070020F0BD013631050020EBE700006E
:104E3000FF030000F0B51C0D671E3F05DB1BE70AF2
:104E40006405640D02D0661CF60A04D0002201231A
:104E50001B05803C2403D0252D060026F6432E6634
:104E60001E096E66CE0FF619B44649004F0D02D0EA
:104E70007E1CF60A03D000200021403F3F033E1B6A
:104E8000B600B444013F7F05C91B49082E6F0136A7
:104E900076089C02950D25437543ED137543AD13BC
:104EA00001356D10F603761B0CB4CC02450D2C4376
:104EB000A2B2B3B25A43270C7B43350C6F43A4B262
:104EC0006C431B1902D3012424043F191C041D0C3C
:104ED000A4187D4124196D41009A91B2ACB261438E
:104EE000170C7C432B0C5F4392B25A43A41802D395
:104EF00001221204BF182204230C52187B41019C8A
:104F00006C431B19520ED9010A434401A01A81B205
:104F1000B2B2514303145A43360C734387B27743FA
:104F2000D617D21900277E4136049B191704160C98
:104F30007F185E417316ED18F3010026803375412A
:104F4000A90F06D16400690AE8055B0A184309D273
:104F50002FE00422944480337541A90AA8059B0AD6
:104F6000184326D3404149412404009A019B0D0077
:104F70005543641B4343E41A95B286B27543170C3C
:104F80007E43030C5F4392B25A43B61802D3012208
:104F90001204BF183204330C52197B4152429C4117
:104FA000002C02D40022013051414008CA071043AE
:104FB000490802B06246D7079210084BD218084B36
:104FC0009A4203D212058918C919F0BD0020002A9F
:104FD00001DC3900F0BD01331905F5E7FD030000E0
:104FE000FE07000007DA002107E0C90FC907520DCC
:104FF00003D0C91201E04C49090500207047C046A2
:105000004A00F2D2520D013A484B9A42EAD2F0B528
:105010001405091B520801D3001849419B08D218F6
:105020001205944640A44A0CA25C0B095343534317
:105030001B1353435B131202D21A13005B435B0B27
:105040004C086343DB135343DB1501335B10D21A67
:10505000130CD21A13005B438902840D21438DB2D5
:105060009EB275430F0C7E431B0C5F438CB25C43B6
:10507000361902D3012424043F193404330C641973
:105080007B419D01A40E2C432034A5B2554324142A
:1050900054432D0C6419A411D203121B95B28EB285
:1050A0007543170C7E430C0C674393B26343F618A9
:1050B00002D301231B04FF183304340C5B197C4119
:1050C000DB186441DB18002363419EB276439DB236
:1050D0001F0C7D437F436C04ED0BA4197D41060238
:1050E0008F08361BAF417D07F6086E41B4B295B20A
:1050F0006C4337147D43120C5743B6B25643EA173C
:10510000AD19002672411204BF182E042A0C36195C
:105110007A410832521117D29D0A9C05D1171019F5
:1051200069416144F0BD0000FF070000FE07000078
:10513000F8EBDFD6CDC5BEB8B2ADA8A4A09C9995BA
:10514000928F8D8A8885838152415D0ADC05D11753
:1051500014194D412B006343A6B27643A2B2270C2B
:105160007A437F435104D20B89197A41D218D2185D
:1051700080054942904102D4002301345D4160081A
:105180006908ED0728436144F0BDC046624618CA6D
:1051900094465A46002A20DB04E0624618CA944628
:1051A00000291ADAC01861415B463B415C46B440B5
:1051B0005246FA40224344464D4662416B41904676
:1051C00099462B46B3403D41FC401C4352465B464A
:1051D000A241AB4192469B467047C01AA1414B4643
:1051E0003B414C46B4404246FA40224354465D4659
:1051F00062416B4192469B462B46B3403D41FC4089
:105200001C4342464B46A241AB41904699467047EB
:10521000002200B5203200F010F8080000BD002286
:1052200000B500F00CF8CA179A4200D100BDD8436F
:105230000121C907414000BD00220B150AD410B559
:10524000944600F0A7F81414013400DA0021CB17BB
:10525000144C20470020002170476244343A0CD49B
:105260000C2A07DA04009140904052422032D44088
:10527000214310BDD843D94310BD203207D40C467A
:105280009440524220321141D040204310BD0800CA
:10529000C917203203D452422032104110BD1800E9
:1052A000190010BD5B5200104A00520D144BD21A67
:1052B00013DDFF2A1EDAD205CB0FDB071A43C3002A
:1052C000400F0903490A084310435B0001D301D092
:1052D000013070474308FBD2704702D0C80FC007A7
:1052E00070470A0312130132F8D1420F072AF5D191
:1052F000012200E0FF22C80F00028018C00570479D
:105300008003000000210A00002104E000210A00BF
:10531000C11704E00022002306E0C0460022CB179C
:1053200058405940C01A994130B5184CA21A00296A
:1053300003D1010010D00020203A4C1512D104D224
:10534000013A001849414C0DFAD3114CA24204D243
:1053500012058918DB07C91830BDD243520D002051
:105360000021F5E703D4013A00184941FBD50B327F
:105370004405C00A4D052843C90A640003D000242F
:1053800060416141E1E7E0D34408F8E732040000FE
:10539000FE0700000A0DCC0F531E1B05C91A52054B
:1053A00003D3C943404200D30131520D03D0531CF3
:1053B000DB0A07D0121B00206400611C89078912D8
:1053C000803A1203014BD21A70470000FF0300001D
:1053D000023225D40C2A1CDA1125AD1A0B002B4100
:1053E000083207350600EE40904091403143F0CC42
:1053F00063431A1500235A41554356435743BF028E
:10540000F412760576196741ED177F19801BB941B3
:1054100070470C220020C917490001310905DBE75C
:105420000902030E194300025342203208D40C0033
:1054300019419440D84020430022504151417047C7
:105440000800C917203B2032F1D50020002100229E
:105450007047F0B5FEF7CAFF00F00EF800F030F824
:1054600006E0F0B5FEF7C2FF00F006F800F046F8DF
:10547000FEF7C2FFF0BD000000B5FFF78BFF30A4C0
:10548000FFF7A6FF00242C4D2C4ED20702D3F64383
:105490006D426641520004D2A246A346A846B146D8
:1054A00003E0A046A146AA46B3466EA4A44601273F
:1054B0001F26FFF772FE0137013E212FF9D100BDF3
:1054C000594684B28DB26C43061475430B145E4387
:1054D00082B25A43AD18EA1700D7D2431204B61865
:1054E0002A042B0C12197341404649469D009B1714
:1054F000920F2A43904199413E2210E7494684B2D7
:105500008DB26C43061475430B145E4382B25A434A
:10551000AD18EA1700D7D2431204B6182A042B0C90
:1055200012197341504659469D009B17920F2A430A
:10553000504159413E22F2E6BB4DF09DC556F6362C
:105540007D5100001A61140085880A00FB211900B2
:10555000F0B5FEF74BFF404D0C002C4001D0AC42A3
:1055600002D1090D090500201C002C4001D0AC42DD
:1055700002D11B0D1B0500220026ED02002B04D5D5
:1055800002266B40694000D476424F1904D59942F7
:105590000CDD0136694003E0BB4207DA013E6B4097
:1055A000070010003A000F0019003B0040B4002A29
:1055B0000FD1002B0AD05C006415013409D14C00D6
:1055C0006415013402D10139013B02E000200021C1
:1055D0002EE0FFF72FFC3E22FFF722FE82468B468D
:1055E0000020002180460122920791461DA4A44676
:1055F00001271F26FFF7CAFD0137013E212FF9D1F0
:105600004A4653460C3A01246407002752081B00FF
:1056100005D49341001979416408F7D104E053415E
:10562000001BB9416408F1D1CE074910400830434E
:1056300040BC002E0AD0094C094D01D5E443ED438E
:10564000F60701D100196941001969413D22FFF7B0
:1056500066FEFEF7D1FEF0BD0000F07F8D305A8867
:10566000A8F64332694FBB610567AC1DB16E409629
:10567000FCBAAD0F72DB0BABA66EF50739BD9FE52B
:1056800076ABFE034B6297BA5BD5FF01D694DBDDA8
:10569000AAFAFF005DEAEE5655FF7F006E77B7AAC3
:1056A000EAFF3F00BCBB5555FDFF1F00DEADAAAAB7
:1056B000FFFF0F006F5555F5FFFF0700ABAAAAFECD
:1056C000FFFF03005555D5FFFFFF0100ABAAFAFF0E
:1056D000FFFF00005555FFFFFF7F0000ABEAFFFF13
:1056E000FF3F000055FDFFFFFF1F0000ABFFFFFF66
:1056F000FF0F0000F5FFFFFFFF070000FFFFFFFFA8
:10570000FF03000000000000000200000000000095
:105710000001000000000000800000000000000008
:105720004000000000000000200000000000000019
:105730001000000000000000080000000000000051
:105740000400000000000000020000000000000053
:105750000100000000000080000000000000004088
:105760000000000051434343C9188C46110C83B21A
:105770004B4310B4040C614392B280B25043624375
:105780001C041B0C001910BC59411304120CC01846
:1057900051416144704700004840414048400E4B31
:1057A0005B6818470C4B1B6818470C4A936F9B08A3
:1057B00002D2094BDB681847F0B5146E556E576F6F
:1057C000166FFFF7F6FF054A1466556657671667AA
:1057D000F0BD014B9B681847183A0020000000D02C
:1057E00007B548404140484001E0C04607B5420087
:1057F000120E03D0FF2A03D1420218D8C00DC005F3
:105800004A00120E03D0FF2A03D14A020FD8C90D55
:10581000C9050122414005D4414001D5814207BD5F
:10582000884207BD0143491801D0C043001807BD95
:1058300000B5FFF7DBFF01D0002000BD012000BD57
:1058400000B5FFF7D3FF01D9002000BD012000BD46
:1058500001231B064200D21804D84A00D21801D8EE
:105860000020704701207047034BDB6FFC46184750
:105870007CDF2D5900100000183A0020C11502D419
:10588000054B9B691847C843FF2801D1C0077047E3
:10589000C817C00570470000183A0020132310B540
:1058A00012481C78FEF714FB0100012C0AD003DD1E
:1058B00080220F4800F076F80E48FEF701FB0E4BF1
:1058C000186010BD0A4C5422200000F06BF80B4BFE
:1058D0006365A365E36523666366A366E366236782
:1058E0006367A367E3672362E361E5E7534600006C
:1058F000183A00204C330000F43800200159001001
:1059000007B5604601880A0A0230DF2AFAD1C9B217
:10591000820804D3028840880004104300E0006835
:10592000014A5050039007BD183A0020C30FDB070F
:1059300041000A0E07D0FF2A08D00909054A891834
:105940001943400770471900002070470249C918E1
:10595000FAE70000000000380000F07F10B50400F6
:1059600032F03EFD002804D0034B04199C4200D8BD
:1059700010BD0248FCF72AFD00000420384904103D
:1059800010B532F037FD10BD01480421014B184716
:1059900000130020E13E0010014B1B681847000077
:1059A00000130020014B5B68184700000013002023
:1059B000030010B508001B681100984710BDC046D1
:1059C000F8B54746CE4680B5437C07000D0016006B
:1059D000002B37D000240020002A1EDD4B1E9846E5
:1059E0001B4B9946002C2BD043461B5D0D3B5A4266
:1059F0005341DBB22A5D0A2A13D00134A642F1DCFE
:105A0000864203DD311A3B6828189847AD19013DDD
:105A10002B780D3B5A4253413B740CBC904699463F
:105A2000F8BD002BE9D1A04203DA211A3B682818FF
:105A30009847484602213B68013498472000DDE73B
:105A40003B7CD7E70368110028009847E5E7C0468C
:105A5000C0490410F0B5C6460C000968060000B540
:105A6000802906D04B1C23606418267104BC904624
:105A7000F0BD0F4B1D68002D16D0231D98460D4F0D
:105A800002E0ED68002D0FD02B68002BF9D03B68A9
:105A9000002B01D0AB42F4D1280041462268FFF729
:105AA0008FFFED68002DEFD101230021DBE7C04619
:105AB000F4370020AC380020F0B557464E46454636
:105AC000DE461C00D023E0B51B061F68354B83B0B3
:105AD00006000D00180001A991469A463EF00CFD03
